{
  "contractName": "Lending",
  "abi": [
    {
      "constant": true,
      "inputs": [
        {
          "internalType": "uint256",
          "name": "",
          "type": "uint256"
        }
      ],
      "name": "loanToLender",
      "outputs": [
        {
          "internalType": "address",
          "name": "",
          "type": "address"
        }
      ],
      "payable": false,
      "stateMutability": "view",
      "type": "function"
    },
    {
      "constant": true,
      "inputs": [
        {
          "internalType": "uint256",
          "name": "",
          "type": "uint256"
        }
      ],
      "name": "loans",
      "outputs": [
        {
          "internalType": "uint256",
          "name": "loanId",
          "type": "uint256"
        },
        {
          "internalType": "address",
          "name": "lender",
          "type": "address"
        },
        {
          "internalType": "uint256",
          "name": "loanAmount",
          "type": "uint256"
        },
        {
          "internalType": "uint256",
          "name": "interestRate",
          "type": "uint256"
        },
        {
          "internalType": "uint256",
          "name": "proposalId",
          "type": "uint256"
        },
        {
          "internalType": "uint256",
          "name": "time",
          "type": "uint256"
        },
        {
          "internalType": "enum Lending.LoanState",
          "name": "state",
          "type": "uint8"
        }
      ],
      "payable": false,
      "stateMutability": "view",
      "type": "function"
    },
    {
      "constant": true,
      "inputs": [
        {
          "internalType": "uint256",
          "name": "",
          "type": "uint256"
        }
      ],
      "name": "potential_lenders",
      "outputs": [
        {
          "internalType": "uint256",
          "name": "loanId",
          "type": "uint256"
        },
        {
          "internalType": "address",
          "name": "lender",
          "type": "address"
        },
        {
          "internalType": "uint256",
          "name": "loanAmount",
          "type": "uint256"
        },
        {
          "internalType": "uint256",
          "name": "interestRate",
          "type": "uint256"
        },
        {
          "internalType": "uint256",
          "name": "proposalId",
          "type": "uint256"
        },
        {
          "internalType": "uint256",
          "name": "time",
          "type": "uint256"
        },
        {
          "internalType": "enum Lending.LoanState",
          "name": "state",
          "type": "uint8"
        }
      ],
      "payable": false,
      "stateMutability": "view",
      "type": "function"
    },
    {
      "constant": true,
      "inputs": [
        {
          "internalType": "uint256",
          "name": "",
          "type": "uint256"
        }
      ],
      "name": "proposalToBorrower",
      "outputs": [
        {
          "internalType": "address",
          "name": "",
          "type": "address"
        }
      ],
      "payable": false,
      "stateMutability": "view",
      "type": "function"
    },
    {
      "constant": true,
      "inputs": [
        {
          "internalType": "uint256",
          "name": "",
          "type": "uint256"
        }
      ],
      "name": "proposals",
      "outputs": [
        {
          "internalType": "uint256",
          "name": "proposalId",
          "type": "uint256"
        },
        {
          "internalType": "address",
          "name": "borrower",
          "type": "address"
        },
        {
          "internalType": "uint256",
          "name": "amount",
          "type": "uint256"
        },
        {
          "internalType": "uint256",
          "name": "time",
          "type": "uint256"
        },
        {
          "internalType": "string",
          "name": "mortgage",
          "type": "string"
        },
        {
          "internalType": "enum Lending.ProposalState",
          "name": "state",
          "type": "uint8"
        }
      ],
      "payable": false,
      "stateMutability": "view",
      "type": "function"
    },
    {
      "constant": false,
      "inputs": [
        {
          "internalType": "uint256",
          "name": "_loanAmount",
          "type": "uint256"
        },
        {
          "internalType": "uint256",
          "name": "_time",
          "type": "uint256"
        },
        {
          "internalType": "string",
          "name": "_mortgage",
          "type": "string"
        }
      ],
      "name": "createProposal",
      "outputs": [],
      "payable": false,
      "stateMutability": "nonpayable",
      "type": "function"
    },
    {
      "constant": false,
      "inputs": [
        {
          "internalType": "uint256",
          "name": "_loanAmount",
          "type": "uint256"
        },
        {
          "internalType": "uint256",
          "name": "_interestRate",
          "type": "uint256"
        },
        {
          "internalType": "uint256",
          "name": "_proposalId",
          "type": "uint256"
        }
      ],
      "name": "acceptProposal",
      "outputs": [],
      "payable": false,
      "stateMutability": "nonpayable",
      "type": "function"
    },
    {
      "constant": false,
      "inputs": [],
      "name": "sendETHtoContract",
      "outputs": [],
      "payable": true,
      "stateMutability": "payable",
      "type": "function"
    },
    {
      "constant": true,
      "inputs": [],
      "name": "getAllPotentialLenders",
      "outputs": [
        {
          "components": [
            {
              "internalType": "uint256",
              "name": "loanId",
              "type": "uint256"
            },
            {
              "internalType": "address",
              "name": "lender",
              "type": "address"
            },
            {
              "internalType": "uint256",
              "name": "loanAmount",
              "type": "uint256"
            },
            {
              "internalType": "uint256",
              "name": "interestRate",
              "type": "uint256"
            },
            {
              "internalType": "uint256",
              "name": "proposalId",
              "type": "uint256"
            },
            {
              "internalType": "uint256",
              "name": "time",
              "type": "uint256"
            },
            {
              "internalType": "enum Lending.LoanState",
              "name": "state",
              "type": "uint8"
            }
          ],
          "internalType": "struct Lending.Loan[]",
          "name": "",
          "type": "tuple[]"
        }
      ],
      "payable": false,
      "stateMutability": "view",
      "type": "function"
    },
    {
      "constant": true,
      "inputs": [],
      "name": "getAllProposals",
      "outputs": [
        {
          "components": [
            {
              "internalType": "uint256",
              "name": "proposalId",
              "type": "uint256"
            },
            {
              "internalType": "address",
              "name": "borrower",
              "type": "address"
            },
            {
              "internalType": "uint256",
              "name": "amount",
              "type": "uint256"
            },
            {
              "internalType": "uint256",
              "name": "time",
              "type": "uint256"
            },
            {
              "internalType": "string",
              "name": "mortgage",
              "type": "string"
            },
            {
              "internalType": "enum Lending.ProposalState",
              "name": "state",
              "type": "uint8"
            }
          ],
          "internalType": "struct Lending.Proposal[]",
          "name": "",
          "type": "tuple[]"
        }
      ],
      "payable": false,
      "stateMutability": "view",
      "type": "function"
    },
    {
      "constant": false,
      "inputs": [
        {
          "internalType": "uint256",
          "name": "_loanId",
          "type": "uint256"
        },
        {
          "internalType": "uint256",
          "name": "_proposalId",
          "type": "uint256"
        }
      ],
      "name": "acceptLender",
      "outputs": [],
      "payable": true,
      "stateMutability": "payable",
      "type": "function"
    },
    {
      "constant": false,
      "inputs": [
        {
          "internalType": "uint256",
          "name": "_loanId",
          "type": "uint256"
        }
      ],
      "name": "repayLoan",
      "outputs": [],
      "payable": true,
      "stateMutability": "payable",
      "type": "function"
    }
  ],
  "bytecode": "0x608060405234801561001057600080fd5b50611822806100206000396000f3fe6080604052600436106100a75760003560e01c8063ab7b1c8911610064578063ab7b1c89146101cc578063b99c56c5146101e8578063bc254c0014610225578063cceb68f514610241578063e1ec3c681461026c578063e8aaf988146102af576100a7565b80630133e1d8146100ac578063013cf08b146100d5578063424959371461011757806346df1347146101215780637028122d146101645780639dfe47cd146101a1575b600080fd5b3480156100b857600080fd5b506100d360048036036100ce91908101906110be565b6102d8565b005b3480156100e157600080fd5b506100fc60048036036100f79190810190610ff2565b6104a2565b60405161010e969594939291906114fb565b60405180910390f35b61011f6105b0565b005b34801561012d57600080fd5b5061014860048036036101439190810190610ff2565b6105b2565b60405161015b9796959493929190611563565b60405180910390f35b34801561017057600080fd5b5061018b60048036036101869190810190610ff2565b61062e565b604051610198919061147c565b60405180910390f35b3480156101ad57600080fd5b506101b6610661565b6040516101c39190611497565b60405180910390f35b6101e660048036036101e19190810190610ff2565b610775565b005b3480156101f457600080fd5b5061020f600480360361020a9190810190610ff2565b610865565b60405161021c919061147c565b60405180910390f35b61023f600480360361023a919081019061101b565b610898565b005b34801561024d57600080fd5b50610256610b3c565b60405161026391906114b9565b60405180910390f35b34801561027857600080fd5b50610293600480360361028e9190810190610ff2565b610cde565b6040516102a69796959493929190611563565b60405180910390f35b3480156102bb57600080fd5b506102d660048036036102d19190810190611057565b610d5a565b005b6000600180549050905060016040518060e001604052808381526020013373ffffffffffffffffffffffffffffffffffffffff168152602001868152602001858152602001848152602001600081526020016002600481111561033757fe5b815250908060018154018082558091505090600182039060005260206000209060070201600090919290919091506000820151816000015560208201518160010160006101000a81548173ffffffffffffffffffffffffffffffffffffffff021916908373ffffffffffffffffffffffffffffffffffffffff16021790555060408201518160020155606082015181600301556080820151816004015560a0820151816005015560c08201518160060160006101000a81548160ff0219169083600481111561040257fe5b0217905550505050336004600083815260200190815260200160002060006101000a81548173ffffffffffffffffffffffffffffffffffffffff021916908373ffffffffffffffffffffffffffffffffffffffff16021790555060016000838154811061046b57fe5b906000526020600020906006020160050160006101000a81548160ff0219169083600281111561049757fe5b021790555050505050565b600081815481106104af57fe5b90600052602060002090600602016000915090508060000154908060010160009054906101000a900473ffffffffffffffffffffffffffffffffffffffff1690806002015490806003015490806004018054600181600116156101000203166002900480601f0160208091040260200160405190810160405280929190818152602001828054600181600116156101000203166002900480156105935780601f1061056857610100808354040283529160200191610593565b820191906000526020600020905b81548152906001019060200180831161057657829003601f168201915b5050505050908060050160009054906101000a900460ff16905086565b565b600181815481106105bf57fe5b90600052602060002090600702016000915090508060000154908060010160009054906101000a900473ffffffffffffffffffffffffffffffffffffffff16908060020154908060030154908060040154908060050154908060060160009054906101000a900460ff16905087565b60046020528060005260406000206000915054906101000a900473ffffffffffffffffffffffffffffffffffffffff1681565b60606001805480602002602001604051908101604052809291908181526020016000905b8282101561076c57838290600052602060002090600702016040518060e0016040529081600082015481526020016001820160009054906101000a900473ffffffffffffffffffffffffffffffffffffffff1673ffffffffffffffffffffffffffffffffffffffff1673ffffffffffffffffffffffffffffffffffffffff168152602001600282015481526020016003820154815260200160048201548152602001600582015481526020016006820160009054906101000a900460ff16600481111561074e57fe5b600481111561075957fe5b8152505081526020019060010190610685565b50505050905090565b60003373ffffffffffffffffffffffffffffffffffffffff163460405161079b90611467565b60006040518083038185875af1925050503d80600081146107d8576040519150601f19603f3d011682016040523d82523d6000602084013e6107dd565b606091505b5050905080610821576040517f08c379a0000000000000000000000000000000000000000000000000000000008152600401610818906114db565b60405180910390fd5b60006002838154811061083057fe5b906000526020600020906007020160060160006101000a81548160ff0219169083600481111561085c57fe5b02179055505050565b60036020528060005260406000206000915054906101000a900473ffffffffffffffffffffffffffffffffffffffff1681565b60026040518060e001604052808481526020016004600086815260200190815260200160002060009054906101000a900473ffffffffffffffffffffffffffffffffffffffff1673ffffffffffffffffffffffffffffffffffffffff1681526020016001858154811061090757fe5b90600052602060002090600702016002015481526020016001858154811061092b57fe5b90600052602060002090600702016003015481526020018381526020014281526020016003600481111561095b57fe5b815250908060018154018082558091505090600182039060005260206000209060070201600090919290919091506000820151816000015560208201518160010160006101000a81548173ffffffffffffffffffffffffffffffffffffffff021916908373ffffffffffffffffffffffffffffffffffffffff16021790555060408201518160020155606082015181600301556080820151816004015560a0820151816005015560c08201518160060160006101000a81548160ff02191690836004811115610a2657fe5b02179055505050506000808281548110610a3c57fe5b906000526020600020906006020160050160006101000a81548160ff02191690836002811115610a6857fe5b021790555060003373ffffffffffffffffffffffffffffffffffffffff1660018481548110610a9357fe5b906000526020600020906007020160020154604051610ab190611467565b60006040518083038185875af1925050503d8060008114610aee576040519150601f19603f3d011682016040523d82523d6000602084013e610af3565b606091505b5050905080610b37576040517f08c379a0000000000000000000000000000000000000000000000000000000008152600401610b2e906114db565b60405180910390fd5b505050565b60606000805480602002602001604051908101604052809291908181526020016000905b82821015610cd557838290600052602060002090600602016040518060c0016040529081600082015481526020016001820160009054906101000a900473ffffffffffffffffffffffffffffffffffffffff1673ffffffffffffffffffffffffffffffffffffffff1673ffffffffffffffffffffffffffffffffffffffff1681526020016002820154815260200160038201548152602001600482018054600181600116156101000203166002900480601f016020809104026020016040519081016040528092919081815260200182805460018160011615610100020316600290048015610c905780601f10610c6557610100808354040283529160200191610c90565b820191906000526020600020905b815481529060010190602001808311610c7357829003601f168201915b505050505081526020016005820160009054906101000a900460ff166002811115610cb757fe5b6002811115610cc257fe5b8152505081526020019060010190610b60565b50505050905090565b60028181548110610ceb57fe5b90600052602060002090600702016000915090508060000154908060010160009054906101000a900473ffffffffffffffffffffffffffffffffffffffff16908060020154908060030154908060040154908060050154908060060160009054906101000a900460ff16905087565b60008080549050905060006040518060c001604052808381526020013373ffffffffffffffffffffffffffffffffffffffff168152602001868152602001858152602001848152602001600280811115610db057fe5b815250908060018154018082558091505090600182039060005260206000209060060201600090919290919091506000820151816000015560208201518160010160006101000a81548173ffffffffffffffffffffffffffffffffffffffff021916908373ffffffffffffffffffffffffffffffffffffffff16021790555060408201518160020155606082015181600301556080820151816004019080519060200190610e5f929190610ee4565b5060a08201518160050160006101000a81548160ff02191690836002811115610e8457fe5b0217905550505050336003600083815260200190815260200160002060006101000a81548173ffffffffffffffffffffffffffffffffffffffff021916908373ffffffffffffffffffffffffffffffffffffffff16021790555050505050565b828054600181600116156101000203166002900490600052602060002090601f016020900481019282601f10610f2557805160ff1916838001178555610f53565b82800160010185558215610f53579182015b82811115610f52578251825591602001919060010190610f37565b5b509050610f609190610f64565b5090565b610f8691905b80821115610f82576000816000905550600101610f6a565b5090565b90565b600082601f830112610f9a57600080fd5b8135610fad610fa8826115ff565b6115d2565b91508082526020830160208301858383011115610fc957600080fd5b610fd483828461175b565b50505092915050565b600081359050610fec816117c8565b92915050565b60006020828403121561100457600080fd5b600061101284828501610fdd565b91505092915050565b6000806040838503121561102e57600080fd5b600061103c85828601610fdd565b925050602061104d85828601610fdd565b9150509250929050565b60008060006060848603121561106c57600080fd5b600061107a86828701610fdd565b935050602061108b86828701610fdd565b925050604084013567ffffffffffffffff8111156110a857600080fd5b6110b486828701610f89565b9150509250925092565b6000806000606084860312156110d357600080fd5b60006110e186828701610fdd565b93505060206110f286828701610fdd565b925050604061110386828701610fdd565b9150509250925092565b60006111198383611332565b60e08301905092915050565b600061113183836113c0565b905092915050565b611142816116d5565b82525050565b611151816116d5565b82525050565b60006111628261164b565b61116c8185611686565b93506111778361162b565b8060005b838110156111a857815161118f888261110d565b975061119a8361166c565b92505060018101905061117b565b5085935050505092915050565b60006111c082611656565b6111ca8185611697565b9350836020820285016111dc8561163b565b8060005b8581101561121857848403895281516111f98582611125565b945061120483611679565b925060208a019950506001810190506111e0565b50829750879550505050505092915050565b61123381611737565b82525050565b61124281611737565b82525050565b61125181611749565b82525050565b61126081611749565b82525050565b600061127182611661565b61127b81856116b3565b935061128b81856020860161176a565b6112948161179d565b840191505092915050565b60006112aa82611661565b6112b481856116c4565b93506112c481856020860161176a565b6112cd8161179d565b840191505092915050565b60006112e56000836116a8565b9150600082019050919050565b60006112ff6010836116c4565b91507f5472616e73666572206661696c65642e000000000000000000000000000000006000830152602082019050919050565b60e0820160008201516113486000850182611449565b50602082015161135b6020850182611139565b50604082015161136e6040850182611449565b5060608201516113816060850182611449565b5060808201516113946080850182611449565b5060a08201516113a760a0850182611449565b5060c08201516113ba60c085018261122a565b50505050565b600060c0830160008301516113d86000860182611449565b5060208301516113eb6020860182611139565b5060408301516113fe6040860182611449565b5060608301516114116060860182611449565b50608083015184820360808601526114298282611266565b91505060a083015161143e60a0860182611248565b508091505092915050565b6114528161172d565b82525050565b6114618161172d565b82525050565b6000611472826112d8565b9150819050919050565b60006020820190506114916000830184611148565b92915050565b600060208201905081810360008301526114b18184611157565b905092915050565b600060208201905081810360008301526114d381846111b5565b905092915050565b600060208201905081810360008301526114f4816112f2565b9050919050565b600060c0820190506115106000830189611458565b61151d6020830188611148565b61152a6040830187611458565b6115376060830186611458565b8181036080830152611549818561129f565b905061155860a0830184611257565b979650505050505050565b600060e082019050611578600083018a611458565b6115856020830189611148565b6115926040830188611458565b61159f6060830187611458565b6115ac6080830186611458565b6115b960a0830185611458565b6115c660c0830184611239565b98975050505050505050565b6000604051905081810181811067ffffffffffffffff821117156115f557600080fd5b8060405250919050565b600067ffffffffffffffff82111561161657600080fd5b601f19601f8301169050602081019050919050565b6000819050602082019050919050565b6000819050602082019050919050565b600081519050919050565b600081519050919050565b600081519050919050565b6000602082019050919050565b6000602082019050919050565b600082825260208201905092915050565b600082825260208201905092915050565b600081905092915050565b600082825260208201905092915050565b600082825260208201905092915050565b60006116e08261170d565b9050919050565b60008190506116f5826117ae565b919050565b6000819050611708826117bb565b919050565b600073ffffffffffffffffffffffffffffffffffffffff82169050919050565b6000819050919050565b6000611742826116e7565b9050919050565b6000611754826116fa565b9050919050565b82818337600083830152505050565b60005b8381101561178857808201518184015260208101905061176d565b83811115611797576000848401525b50505050565b6000601f19601f8301169050919050565b600581106117b857fe5b50565b600381106117c557fe5b50565b6117d18161172d565b81146117dc57600080fd5b5056fea365627a7a72315820dbaa5d334a32ac12e70f68f14a286e38cbab4754a430c222740fd70a632298536c6578706572696d656e74616cf564736f6c63430005100040",
  "source": "// SPDX-License-Identifier: MIT\r\npragma solidity >=0.4.22 <0.9.0;\r\npragma experimental ABIEncoderV2;\r\n\r\nimport \"./SafeMath.sol\";\r\n\r\ncontract Lending {\r\n    using SafeMath for uint;\r\n    using SafeMath for uint256;\r\n\r\n    enum ProposalState {\r\n        ACCEPTED,\r\n        ACCEPTING,\r\n        WAITING\r\n    }\r\n    enum LoanState {\r\n        REPAID,\r\n        ACCEPTED,\r\n        WAITING,\r\n        PAID,\r\n        FAILED\r\n    }\r\n\r\n    // borrower\r\n\r\n    struct Proposal {\r\n        uint256 proposalId;\r\n        address borrower;\r\n        uint256 amount;\r\n        uint256 time;\r\n        string mortgage;\r\n        ProposalState state;\r\n    }\r\n\r\n    struct Loan {\r\n        uint256 loanId;\r\n        address lender;\r\n        uint256 loanAmount;\r\n        uint256 interestRate;\r\n        uint256 proposalId; // not sure?\r\n        uint256 time;\r\n        LoanState state;\r\n    }\r\n\r\n    Proposal[] public proposals;\r\n    Loan[] public potential_lenders;\r\n    Loan[] public loans;\r\n\r\n    mapping(uint256 => address) public proposalToBorrower;\r\n    mapping(uint256 => address) public loanToLender;\r\n    function createProposal(\r\n        uint256 _loanAmount,\r\n        uint256 _time,\r\n        string memory _mortgage\r\n    ) public {\r\n        //change loanAmount to amount?\r\n        uint256 _proposalId = proposals.length;\r\n        proposals.push(\r\n            Proposal(\r\n                _proposalId,\r\n                msg.sender,\r\n                _loanAmount,\r\n                _time,\r\n                _mortgage,\r\n                ProposalState.WAITING\r\n            )\r\n        );\r\n        \r\n        proposalToBorrower[_proposalId] = msg.sender;\r\n    }\r\n\r\n    function acceptProposal(\r\n        uint256 _loanAmount,\r\n        uint256 _interestRate,\r\n        uint256 _proposalId\r\n    ) public {\r\n        uint256 _loanId = potential_lenders.length;\r\n        potential_lenders.push(\r\n            Loan(\r\n                _loanId,\r\n                msg.sender,\r\n                _loanAmount,\r\n                _interestRate,\r\n                _proposalId,\r\n                0,\r\n                LoanState.WAITING\r\n            )\r\n        );\r\n        loanToLender[_loanId] = msg.sender;\r\n        proposals[_proposalId].state = ProposalState.ACCEPTING;\r\n    }\r\n\r\n    function sendETHtoContract() public payable {\r\n        //msg.value is the amount of wei that the msg.sender sent with this transaction.\r\n        //If the transaction doesn't fail, then the contract now has this ETH.\r\n    }\r\n\r\n    function getAllPotentialLenders() public view returns (Loan[] memory) {\r\n        return potential_lenders;\r\n    }\r\n\r\n    function getAllProposals() public view returns (Proposal[] memory) {\r\n        return proposals;\r\n    }\r\n\r\n    function acceptLender(uint256 _loanId, uint256 _proposalId) public payable {\r\n        loans.push(\r\n            Loan(\r\n                _loanId,\r\n                loanToLender[_loanId],\r\n                potential_lenders[_loanId].loanAmount,\r\n                potential_lenders[_loanId].interestRate,\r\n                _proposalId,\r\n                block.timestamp,\r\n                LoanState.PAID\r\n            )\r\n        );\r\n\r\n        proposals[_proposalId].state = ProposalState.ACCEPTED;\r\n        \r\n         (bool success, ) = msg.sender.call.value(potential_lenders[_loanId].loanAmount)(\"\");\r\n         require(success, \"Transfer failed.\");\r\n        \r\n    }\r\n\r\n    // function repayAmount(uint256 _loanId) public view returns (uint256) {\r\n    //     if (loans[_loanId].state == LoanState.ACCEPTED) {\r\n    //         uint256 startTime = loans[_loanId].time;\r\n    //         uint256 finalAmount = 0;\r\n    //         uint256 principalValue = loans[_loanId].loanAmount;\r\n    //         uint256 paymentTime = block.timestamp;\r\n    //         uint256 interestRate = loans[_loanId].interestRate;\r\n    //         uint256 loanTime = paymentTime - startTime;\r\n\r\n    //         uint256 interest = (\r\n    //             principalValue.mul(interestRate).mul(loanTime)\r\n    //         ) / (365 * 24 * 60 * 60 * 100);\r\n\r\n    //         finalAmount.add(interest);\r\n    //         finalAmount.add(principalValue);\r\n\r\n    //         return finalAmount;\r\n    //     }\r\n    // }\r\n\r\n    function repayLoan(uint256 _loanId) public payable {\r\n        (bool success, ) = msg.sender.call.value(msg.value)(\"\");\r\n        require(success, \"Transfer failed.\");\r\n\r\n        loans[_loanId].state = LoanState.REPAID;\r\n    }\r\n}\r\n",
  "sourcePath": "D:\\Studies\\coding\\blockchain\\DeFi-P2P-Lender\\contracts\\Lending.sol",
  "compiler": {
    "name": "solc",
    "version": "0.5.16+commit.9c3226ce.Emscripten.clang"
  },
  "schemaVersion": "3.4.3",
  "updatedAt": "2021-11-12T15:58:25.430Z",
  "networkType": "ethereum",
  "devdoc": {
    "methods": {}
  },
  "userdoc": {
    "methods": {}
  }
}