{
  "contractName": "Lending",
  "abi": [
    {
      "constant": true,
      "inputs": [
        {
          "internalType": "uint256",
          "name": "",
          "type": "uint256"
        }
      ],
      "name": "loanToLender",
      "outputs": [
        {
          "internalType": "address",
          "name": "",
          "type": "address"
        }
      ],
      "payable": false,
      "stateMutability": "view",
      "type": "function"
    },
    {
      "constant": true,
      "inputs": [
        {
          "internalType": "uint256",
          "name": "",
          "type": "uint256"
        }
      ],
      "name": "loans",
      "outputs": [
        {
          "internalType": "uint256",
          "name": "loanId",
          "type": "uint256"
        },
        {
          "internalType": "address",
          "name": "lender",
          "type": "address"
        },
        {
          "internalType": "uint256",
          "name": "loanAmount",
          "type": "uint256"
        },
        {
          "internalType": "uint256",
          "name": "interestRate",
          "type": "uint256"
        },
        {
          "internalType": "uint256",
          "name": "proposalId",
          "type": "uint256"
        },
        {
          "internalType": "uint256",
          "name": "time",
          "type": "uint256"
        },
        {
          "internalType": "enum Lending.LoanState",
          "name": "state",
          "type": "uint8"
        }
      ],
      "payable": false,
      "stateMutability": "view",
      "type": "function"
    },
    {
      "constant": true,
      "inputs": [
        {
          "internalType": "uint256",
          "name": "",
          "type": "uint256"
        }
      ],
      "name": "potential_lenders",
      "outputs": [
        {
          "internalType": "uint256",
          "name": "loanId",
          "type": "uint256"
        },
        {
          "internalType": "address",
          "name": "lender",
          "type": "address"
        },
        {
          "internalType": "uint256",
          "name": "loanAmount",
          "type": "uint256"
        },
        {
          "internalType": "uint256",
          "name": "interestRate",
          "type": "uint256"
        },
        {
          "internalType": "uint256",
          "name": "proposalId",
          "type": "uint256"
        },
        {
          "internalType": "uint256",
          "name": "time",
          "type": "uint256"
        },
        {
          "internalType": "enum Lending.LoanState",
          "name": "state",
          "type": "uint8"
        }
      ],
      "payable": false,
      "stateMutability": "view",
      "type": "function"
    },
    {
      "constant": true,
      "inputs": [
        {
          "internalType": "uint256",
          "name": "",
          "type": "uint256"
        }
      ],
      "name": "proposalToBorrower",
      "outputs": [
        {
          "internalType": "address",
          "name": "",
          "type": "address"
        }
      ],
      "payable": false,
      "stateMutability": "view",
      "type": "function"
    },
    {
      "constant": true,
      "inputs": [
        {
          "internalType": "uint256",
          "name": "",
          "type": "uint256"
        }
      ],
      "name": "proposals",
      "outputs": [
        {
          "internalType": "uint256",
          "name": "proposalId",
          "type": "uint256"
        },
        {
          "internalType": "address",
          "name": "borrower",
          "type": "address"
        },
        {
          "internalType": "uint256",
          "name": "amount",
          "type": "uint256"
        },
        {
          "internalType": "uint256",
          "name": "time",
          "type": "uint256"
        },
        {
          "internalType": "bytes32",
          "name": "mortgage",
          "type": "bytes32"
        },
        {
          "internalType": "enum Lending.ProposalState",
          "name": "state",
          "type": "uint8"
        }
      ],
      "payable": false,
      "stateMutability": "view",
      "type": "function"
    },
    {
      "constant": false,
      "inputs": [
        {
          "internalType": "uint256",
          "name": "_loanAmount",
          "type": "uint256"
        },
        {
          "internalType": "uint256",
          "name": "_time",
          "type": "uint256"
        },
        {
          "internalType": "bytes32",
          "name": "_mortgage",
          "type": "bytes32"
        }
      ],
      "name": "createProposal",
      "outputs": [],
      "payable": false,
      "stateMutability": "nonpayable",
      "type": "function"
    },
    {
      "constant": false,
      "inputs": [
        {
          "internalType": "uint256",
          "name": "_loanAmount",
          "type": "uint256"
        },
        {
          "internalType": "uint256",
          "name": "_interestRate",
          "type": "uint256"
        },
        {
          "internalType": "uint256",
          "name": "_proposalId",
          "type": "uint256"
        }
      ],
      "name": "acceptProposal",
      "outputs": [],
      "payable": false,
      "stateMutability": "nonpayable",
      "type": "function"
    },
    {
      "constant": true,
      "inputs": [],
      "name": "getAllPotentialLenders",
      "outputs": [
        {
          "components": [
            {
              "internalType": "uint256",
              "name": "loanId",
              "type": "uint256"
            },
            {
              "internalType": "address",
              "name": "lender",
              "type": "address"
            },
            {
              "internalType": "uint256",
              "name": "loanAmount",
              "type": "uint256"
            },
            {
              "internalType": "uint256",
              "name": "interestRate",
              "type": "uint256"
            },
            {
              "internalType": "uint256",
              "name": "proposalId",
              "type": "uint256"
            },
            {
              "internalType": "uint256",
              "name": "time",
              "type": "uint256"
            },
            {
              "internalType": "enum Lending.LoanState",
              "name": "state",
              "type": "uint8"
            }
          ],
          "internalType": "struct Lending.Loan[]",
          "name": "",
          "type": "tuple[]"
        }
      ],
      "payable": false,
      "stateMutability": "view",
      "type": "function"
    },
    {
      "constant": true,
      "inputs": [],
      "name": "getAllProposals",
      "outputs": [
        {
          "components": [
            {
              "internalType": "uint256",
              "name": "proposalId",
              "type": "uint256"
            },
            {
              "internalType": "address",
              "name": "borrower",
              "type": "address"
            },
            {
              "internalType": "uint256",
              "name": "amount",
              "type": "uint256"
            },
            {
              "internalType": "uint256",
              "name": "time",
              "type": "uint256"
            },
            {
              "internalType": "bytes32",
              "name": "mortgage",
              "type": "bytes32"
            },
            {
              "internalType": "enum Lending.ProposalState",
              "name": "state",
              "type": "uint8"
            }
          ],
          "internalType": "struct Lending.Proposal[]",
          "name": "",
          "type": "tuple[]"
        }
      ],
      "payable": false,
      "stateMutability": "view",
      "type": "function"
    },
    {
      "constant": false,
      "inputs": [
        {
          "internalType": "uint256",
          "name": "_loanId",
          "type": "uint256"
        },
        {
          "internalType": "uint256",
          "name": "_proposalId",
          "type": "uint256"
        }
      ],
      "name": "acceptLender",
      "outputs": [],
      "payable": true,
      "stateMutability": "payable",
      "type": "function"
    },
    {
      "constant": false,
      "inputs": [],
      "name": "sendETHtoContract",
      "outputs": [],
      "payable": true,
      "stateMutability": "payable",
      "type": "function"
    },
    {
      "constant": false,
      "inputs": [
        {
          "internalType": "uint256",
          "name": "_loanId",
          "type": "uint256"
        }
      ],
      "name": "repayLoan",
      "outputs": [],
      "payable": true,
      "stateMutability": "payable",
      "type": "function"
    }
  ],
  "bytecode": "0x608060405234801561001057600080fd5b506114c0806100206000396000f3fe6080604052600436106100a75760003560e01c80639dfe47cd116100645780639dfe47cd146101ca578063ab7b1c89146101f5578063b99c56c514610211578063bc254c001461024e578063cceb68f51461026a578063e1ec3c6814610295576100a7565b80630133e1d8146100ac578063013cf08b146100d55780632e7107a214610117578063424959371461014057806346df13471461014a5780637028122d1461018d575b600080fd5b3480156100b857600080fd5b506100d360048036036100ce9190810190610e7f565b6102d8565b005b3480156100e157600080fd5b506100fc60048036036100f79190810190610dcb565b6104a2565b60405161010e96959493929190611247565b60405180910390f35b34801561012357600080fd5b5061013e60048036036101399190810190610e30565b610518565b005b61014861068f565b005b34801561015657600080fd5b50610171600480360361016c9190810190610dcb565b610691565b60405161018497969594939291906112a8565b60405180910390f35b34801561019957600080fd5b506101b460048036036101af9190810190610dcb565b61070d565b6040516101c191906111c8565b60405180910390f35b3480156101d657600080fd5b506101df610740565b6040516101ec91906111e3565b60405180910390f35b61020f600480360361020a9190810190610dcb565b610854565b005b34801561021d57600080fd5b5061023860048036036102339190810190610dcb565b610944565b60405161024591906111c8565b60405180910390f35b61026860048036036102639190810190610df4565b610977565b005b34801561027657600080fd5b5061027f610c1b565b60405161028c9190611205565b60405180910390f35b3480156102a157600080fd5b506102bc60048036036102b79190810190610dcb565b610d25565b6040516102cf97969594939291906112a8565b60405180910390f35b6000600180549050905060016040518060e001604052808381526020013373ffffffffffffffffffffffffffffffffffffffff168152602001868152602001858152602001848152602001600081526020016002600481111561033757fe5b815250908060018154018082558091505090600182039060005260206000209060070201600090919290919091506000820151816000015560208201518160010160006101000a81548173ffffffffffffffffffffffffffffffffffffffff021916908373ffffffffffffffffffffffffffffffffffffffff16021790555060408201518160020155606082015181600301556080820151816004015560a0820151816005015560c08201518160060160006101000a81548160ff0219169083600481111561040257fe5b0217905550505050336004600083815260200190815260200160002060006101000a81548173ffffffffffffffffffffffffffffffffffffffff021916908373ffffffffffffffffffffffffffffffffffffffff16021790555060016000838154811061046b57fe5b906000526020600020906006020160050160006101000a81548160ff0219169083600281111561049757fe5b021790555050505050565b600081815481106104af57fe5b90600052602060002090600602016000915090508060000154908060010160009054906101000a900473ffffffffffffffffffffffffffffffffffffffff16908060020154908060030154908060040154908060050160009054906101000a900460ff16905086565b60008080549050905060006040518060c001604052808381526020013373ffffffffffffffffffffffffffffffffffffffff16815260200186815260200185815260200184815260200160028081111561056e57fe5b815250908060018154018082558091505090600182039060005260206000209060060201600090919290919091506000820151816000015560208201518160010160006101000a81548173ffffffffffffffffffffffffffffffffffffffff021916908373ffffffffffffffffffffffffffffffffffffffff16021790555060408201518160020155606082015181600301556080820151816004015560a08201518160050160006101000a81548160ff0219169083600281111561062f57fe5b0217905550505050336003600083815260200190815260200160002060006101000a81548173ffffffffffffffffffffffffffffffffffffffff021916908373ffffffffffffffffffffffffffffffffffffffff16021790555050505050565b565b6001818154811061069e57fe5b90600052602060002090600702016000915090508060000154908060010160009054906101000a900473ffffffffffffffffffffffffffffffffffffffff16908060020154908060030154908060040154908060050154908060060160009054906101000a900460ff16905087565b60046020528060005260406000206000915054906101000a900473ffffffffffffffffffffffffffffffffffffffff1681565b60606001805480602002602001604051908101604052809291908181526020016000905b8282101561084b57838290600052602060002090600702016040518060e0016040529081600082015481526020016001820160009054906101000a900473ffffffffffffffffffffffffffffffffffffffff1673ffffffffffffffffffffffffffffffffffffffff1673ffffffffffffffffffffffffffffffffffffffff168152602001600282015481526020016003820154815260200160048201548152602001600582015481526020016006820160009054906101000a900460ff16600481111561082d57fe5b600481111561083857fe5b8152505081526020019060010190610764565b50505050905090565b60003373ffffffffffffffffffffffffffffffffffffffff163460405161087a906111b3565b60006040518083038185875af1925050503d80600081146108b7576040519150601f19603f3d011682016040523d82523d6000602084013e6108bc565b606091505b5050905080610900576040517f08c379a00000000000000000000000000000000000000000000000000000000081526004016108f790611227565b60405180910390fd5b60006002838154811061090f57fe5b906000526020600020906007020160060160006101000a81548160ff0219169083600481111561093b57fe5b02179055505050565b60036020528060005260406000206000915054906101000a900473ffffffffffffffffffffffffffffffffffffffff1681565b60026040518060e001604052808481526020016004600086815260200190815260200160002060009054906101000a900473ffffffffffffffffffffffffffffffffffffffff1673ffffffffffffffffffffffffffffffffffffffff168152602001600185815481106109e657fe5b906000526020600020906007020160020154815260200160018581548110610a0a57fe5b906000526020600020906007020160030154815260200183815260200142815260200160036004811115610a3a57fe5b815250908060018154018082558091505090600182039060005260206000209060070201600090919290919091506000820151816000015560208201518160010160006101000a81548173ffffffffffffffffffffffffffffffffffffffff021916908373ffffffffffffffffffffffffffffffffffffffff16021790555060408201518160020155606082015181600301556080820151816004015560a0820151816005015560c08201518160060160006101000a81548160ff02191690836004811115610b0557fe5b02179055505050506000808281548110610b1b57fe5b906000526020600020906006020160050160006101000a81548160ff02191690836002811115610b4757fe5b021790555060003373ffffffffffffffffffffffffffffffffffffffff1660018481548110610b7257fe5b906000526020600020906007020160020154604051610b90906111b3565b60006040518083038185875af1925050503d8060008114610bcd576040519150601f19603f3d011682016040523d82523d6000602084013e610bd2565b606091505b5050905080610c16576040517f08c379a0000000000000000000000000000000000000000000000000000000008152600401610c0d90611227565b60405180910390fd5b505050565b60606000805480602002602001604051908101604052809291908181526020016000905b82821015610d1c57838290600052602060002090600602016040518060c0016040529081600082015481526020016001820160009054906101000a900473ffffffffffffffffffffffffffffffffffffffff1673ffffffffffffffffffffffffffffffffffffffff1673ffffffffffffffffffffffffffffffffffffffff1681526020016002820154815260200160038201548152602001600482015481526020016005820160009054906101000a900460ff166002811115610cfe57fe5b6002811115610d0957fe5b8152505081526020019060010190610c3f565b50505050905090565b60028181548110610d3257fe5b90600052602060002090600702016000915090508060000154908060010160009054906101000a900473ffffffffffffffffffffffffffffffffffffffff16908060020154908060030154908060040154908060050154908060060160009054906101000a900460ff16905087565b600081359050610db08161144f565b92915050565b600081359050610dc581611466565b92915050565b600060208284031215610ddd57600080fd5b6000610deb84828501610db6565b91505092915050565b60008060408385031215610e0757600080fd5b6000610e1585828601610db6565b9250506020610e2685828601610db6565b9150509250929050565b600080600060608486031215610e4557600080fd5b6000610e5386828701610db6565b9350506020610e6486828701610db6565b9250506040610e7586828701610da1565b9150509250925092565b600080600060608486031215610e9457600080fd5b6000610ea286828701610db6565b9350506020610eb386828701610db6565b9250506040610ec486828701610db6565b9150509250925092565b6000610eda838361108c565b60e08301905092915050565b6000610ef2838361111a565b60c08301905092915050565b610f07816113a5565b82525050565b610f16816113a5565b82525050565b6000610f2782611337565b610f318185611367565b9350610f3c83611317565b8060005b83811015610f6d578151610f548882610ece565b9750610f5f8361134d565b925050600181019050610f40565b5085935050505092915050565b6000610f8582611342565b610f8f8185611378565b9350610f9a83611327565b8060005b83811015610fcb578151610fb28882610ee6565b9750610fbd8361135a565b925050600181019050610f9e565b5085935050505092915050565b610fe1816113b7565b82525050565b610ff0816113b7565b82525050565b610fff81611411565b82525050565b61100e81611411565b82525050565b61101d81611423565b82525050565b61102c81611423565b82525050565b600061103f600083611389565b9150600082019050919050565b6000611059601083611394565b91507f5472616e73666572206661696c65642e000000000000000000000000000000006000830152602082019050919050565b60e0820160008201516110a26000850182611195565b5060208201516110b56020850182610efe565b5060408201516110c86040850182611195565b5060608201516110db6060850182611195565b5060808201516110ee6080850182611195565b5060a082015161110160a0850182611195565b5060c082015161111460c0850182610ff6565b50505050565b60c0820160008201516111306000850182611195565b5060208201516111436020850182610efe565b5060408201516111566040850182611195565b5060608201516111696060850182611195565b50608082015161117c6080850182610fd8565b5060a082015161118f60a0850182611014565b50505050565b61119e81611407565b82525050565b6111ad81611407565b82525050565b60006111be82611032565b9150819050919050565b60006020820190506111dd6000830184610f0d565b92915050565b600060208201905081810360008301526111fd8184610f1c565b905092915050565b6000602082019050818103600083015261121f8184610f7a565b905092915050565b600060208201905081810360008301526112408161104c565b9050919050565b600060c08201905061125c60008301896111a4565b6112696020830188610f0d565b61127660408301876111a4565b61128360608301866111a4565b6112906080830185610fe7565b61129d60a0830184611023565b979650505050505050565b600060e0820190506112bd600083018a6111a4565b6112ca6020830189610f0d565b6112d760408301886111a4565b6112e460608301876111a4565b6112f160808301866111a4565b6112fe60a08301856111a4565b61130b60c0830184611005565b98975050505050505050565b6000819050602082019050919050565b6000819050602082019050919050565b600081519050919050565b600081519050919050565b6000602082019050919050565b6000602082019050919050565b600082825260208201905092915050565b600082825260208201905092915050565b600081905092915050565b600082825260208201905092915050565b60006113b0826113e7565b9050919050565b6000819050919050565b60008190506113cf82611435565b919050565b60008190506113e282611442565b919050565b600073ffffffffffffffffffffffffffffffffffffffff82169050919050565b6000819050919050565b600061141c826113c1565b9050919050565b600061142e826113d4565b9050919050565b6005811061143f57fe5b50565b6003811061144c57fe5b50565b611458816113b7565b811461146357600080fd5b50565b61146f81611407565b811461147a57600080fd5b5056fea365627a7a7231582020d77f16372a5a643285e212526f5fc0f095838efc5f96d1f0002a8d8454f4496c6578706572696d656e74616cf564736f6c63430005100040",
  "source": "pragma solidity >=0.4.22 <0.9.0;\r\npragma experimental ABIEncoderV2;\r\n\r\nimport \"./SafeMath.sol\";\r\n\r\ncontract Lending {\r\n    using SafeMath for uint256;\r\n    using SafeMath for uint256;\r\n\r\n    enum ProposalState {\r\n        ACCEPTED,\r\n        ACCEPTING,\r\n        WAITING\r\n    }\r\n    enum LoanState {\r\n        REPAID,\r\n        ACCEPTED,\r\n        WAITING,\r\n        PAID,\r\n        FAILED\r\n    }\r\n\r\n    // borrower\r\n\r\n    struct Proposal {\r\n        uint256 proposalId;\r\n        address borrower;\r\n        uint256 amount;\r\n        uint256 time;\r\n        bytes32 mortgage;\r\n        ProposalState state;\r\n    }\r\n\r\n    struct Loan {\r\n        uint256 loanId;\r\n        address lender;\r\n        uint256 loanAmount;\r\n        uint256 interestRate;\r\n        uint256 proposalId; // not sure?\r\n        uint256 time;\r\n        LoanState state;\r\n    }\r\n\r\n    Proposal[] public proposals;\r\n    Loan[] public potential_lenders;\r\n    Loan[] public loans;\r\n\r\n    mapping(uint256 => address) public proposalToBorrower;\r\n    mapping(uint256 => address) public loanToLender;\r\n\r\n    function createProposal(\r\n        uint256 _loanAmount,\r\n        uint256 _time,\r\n        bytes32 _mortgage\r\n    ) public {\r\n        //change loanAmount to amount?\r\n        uint256 _proposalId = proposals.length;\r\n        proposals.push(\r\n            Proposal(\r\n                _proposalId,\r\n                msg.sender,\r\n                _loanAmount,\r\n                _time,\r\n                _mortgage,\r\n                ProposalState.WAITING\r\n            )\r\n        );\r\n        \r\n        proposalToBorrower[_proposalId] = msg.sender;\r\n    }\r\n\r\n    function acceptProposal(\r\n        uint256 _loanAmount,\r\n        uint256 _interestRate,\r\n        uint256 _proposalId\r\n    ) public {\r\n        uint256 _loanId = potential_lenders.length;\r\n        potential_lenders.push(\r\n            Loan(\r\n                _loanId,\r\n                msg.sender,\r\n                _loanAmount,\r\n                _interestRate,\r\n                _proposalId,\r\n                0,\r\n                LoanState.WAITING\r\n            )\r\n        );\r\n\r\n        loanToLender[_loanId] = msg.sender;\r\n\r\n        proposals[_proposalId].state = ProposalState.ACCEPTING;\r\n    }\r\n\r\n    function getAllPotentialLenders() public view returns (Loan[] memory) {\r\n        return potential_lenders;\r\n    }\r\n\r\n    function getAllProposals() public view returns (Proposal[] memory) {\r\n        return proposals;\r\n    }\r\n\r\n    function acceptLender(uint256 _loanId, uint256 _proposalId) public payable {\r\n        loans.push(\r\n            Loan(\r\n                _loanId,\r\n                loanToLender[_loanId],\r\n                potential_lenders[_loanId].loanAmount,\r\n                potential_lenders[_loanId].interestRate,\r\n                _proposalId,\r\n                block.timestamp,\r\n                LoanState.PAID\r\n            )\r\n        );\r\n\r\n        proposals[_proposalId].state = ProposalState.ACCEPTED;\r\n\r\n        (bool success, ) = msg.sender.call.value(\r\n            potential_lenders[_loanId].loanAmount\r\n        )(\"\");\r\n        require(success, \"Transfer failed.\");\r\n    }\r\n\r\n    function sendETHtoContract() public payable {\r\n        //msg.value is the amount of wei that the msg.sender sent with this transaction.\r\n        //If the transaction doesn't fail, then the contract now has this ETH.\r\n    }\r\n\r\n    // function repayAmount(uint256 _loanId) public view returns (uint256) {\r\n    //     if (loans[_loanId].state == LoanState.ACCEPTED) {\r\n    //         uint256 startTime = loans[_loanId].time;\r\n    //         uint256 finalAmount = 0;\r\n    //         uint256 principalValue = loans[_loanId].loanAmount;\r\n    //         uint256 paymentTime = block.timestamp;\r\n    //         uint256 interestRate = loans[_loanId].interestRate;\r\n    //         uint256 loanTime = paymentTime - startTime;\r\n\r\n    //         uint256 interest = (\r\n    //             principalValue.mul(interestRate).mul(loanTime)\r\n    //         ) / (365 * 24 * 60 * 60 * 100);\r\n\r\n    //         finalAmount.add(interest);\r\n    //         finalAmount.add(principalValue);\r\n\r\n    //         return finalAmount;\r\n    //     }\r\n    // }\r\n\r\n    function repayLoan(uint256 _loanId) public payable {\r\n        (bool success, ) = msg.sender.call.value(msg.value)(\"\");\r\n        require(success, \"Transfer failed.\");\r\n\r\n        loans[_loanId].state = LoanState.REPAID;\r\n    }\r\n}\r\n",
  "sourcePath": "E:\\DeFi-P2P-bc\\web3\\contracts\\Lending.sol",
  "compiler": {
    "name": "solc",
    "version": "0.5.16+commit.9c3226ce.Emscripten.clang"
  },
  "schemaVersion": "3.4.3",
  "updatedAt": "2021-11-12T14:51:45.839Z",
  "networkType": "ethereum",
  "devdoc": {
    "methods": {}
  },
  "userdoc": {
    "methods": {}
  }
}