{
  "contractName": "Lending",
  "abi": [
    {
      "constant": true,
      "inputs": [
        {
          "internalType": "uint256",
          "name": "",
          "type": "uint256"
        }
      ],
      "name": "loanToLender",
      "outputs": [
        {
          "internalType": "address",
          "name": "",
          "type": "address"
        }
      ],
      "payable": false,
      "stateMutability": "view",
      "type": "function"
    },
    {
      "constant": true,
      "inputs": [
        {
          "internalType": "uint256",
          "name": "",
          "type": "uint256"
        }
      ],
      "name": "loans",
      "outputs": [
        {
          "internalType": "uint256",
          "name": "loanId",
          "type": "uint256"
        },
        {
          "internalType": "address",
          "name": "lender",
          "type": "address"
        },
        {
          "internalType": "uint256",
          "name": "loanAmount",
          "type": "uint256"
        },
        {
          "internalType": "uint256",
          "name": "interestRate",
          "type": "uint256"
        },
        {
          "internalType": "uint256",
          "name": "proposalId",
          "type": "uint256"
        },
        {
          "internalType": "uint256",
          "name": "time",
          "type": "uint256"
        },
        {
          "internalType": "enum Lending.LoanState",
          "name": "state",
          "type": "uint8"
        }
      ],
      "payable": false,
      "stateMutability": "view",
      "type": "function"
    },
    {
      "constant": true,
      "inputs": [
        {
          "internalType": "uint256",
          "name": "",
          "type": "uint256"
        }
      ],
      "name": "potential_lenders",
      "outputs": [
        {
          "internalType": "uint256",
          "name": "loanId",
          "type": "uint256"
        },
        {
          "internalType": "address",
          "name": "lender",
          "type": "address"
        },
        {
          "internalType": "uint256",
          "name": "loanAmount",
          "type": "uint256"
        },
        {
          "internalType": "uint256",
          "name": "interestRate",
          "type": "uint256"
        },
        {
          "internalType": "uint256",
          "name": "proposalId",
          "type": "uint256"
        },
        {
          "internalType": "uint256",
          "name": "time",
          "type": "uint256"
        },
        {
          "internalType": "enum Lending.LoanState",
          "name": "state",
          "type": "uint8"
        }
      ],
      "payable": false,
      "stateMutability": "view",
      "type": "function"
    },
    {
      "constant": true,
      "inputs": [
        {
          "internalType": "uint256",
          "name": "",
          "type": "uint256"
        }
      ],
      "name": "proposalToBorrower",
      "outputs": [
        {
          "internalType": "address",
          "name": "",
          "type": "address"
        }
      ],
      "payable": false,
      "stateMutability": "view",
      "type": "function"
    },
    {
      "constant": true,
      "inputs": [
        {
          "internalType": "uint256",
          "name": "",
          "type": "uint256"
        }
      ],
      "name": "proposals",
      "outputs": [
        {
          "internalType": "uint256",
          "name": "proposalId",
          "type": "uint256"
        },
        {
          "internalType": "address",
          "name": "borrower",
          "type": "address"
        },
        {
          "internalType": "uint256",
          "name": "amount",
          "type": "uint256"
        },
        {
          "internalType": "uint256",
          "name": "time",
          "type": "uint256"
        },
        {
          "internalType": "string",
          "name": "mortgage",
          "type": "string"
        },
        {
          "internalType": "enum Lending.ProposalState",
          "name": "state",
          "type": "uint8"
        },
        {
          "internalType": "bool",
          "name": "sendMoney",
          "type": "bool"
        }
      ],
      "payable": false,
      "stateMutability": "view",
      "type": "function"
    },
    {
      "constant": false,
      "inputs": [
        {
          "internalType": "uint256",
          "name": "_loanAmount",
          "type": "uint256"
        },
        {
          "internalType": "uint256",
          "name": "_time",
          "type": "uint256"
        },
        {
          "internalType": "string",
          "name": "_mortgage",
          "type": "string"
        }
      ],
      "name": "createProposal",
      "outputs": [],
      "payable": false,
      "stateMutability": "nonpayable",
      "type": "function"
    },
    {
      "constant": false,
      "inputs": [
        {
          "internalType": "uint256",
          "name": "_loanAmount",
          "type": "uint256"
        },
        {
          "internalType": "uint256",
          "name": "_interestRate",
          "type": "uint256"
        },
        {
          "internalType": "uint256",
          "name": "_proposalId",
          "type": "uint256"
        }
      ],
      "name": "acceptProposal",
      "outputs": [],
      "payable": false,
      "stateMutability": "nonpayable",
      "type": "function"
    },
    {
      "constant": false,
      "inputs": [],
      "name": "sendETHtoContract",
      "outputs": [],
      "payable": true,
      "stateMutability": "payable",
      "type": "function"
    },
    {
      "constant": true,
      "inputs": [],
      "name": "getAllPotentialLenders",
      "outputs": [
        {
          "components": [
            {
              "internalType": "uint256",
              "name": "loanId",
              "type": "uint256"
            },
            {
              "internalType": "address",
              "name": "lender",
              "type": "address"
            },
            {
              "internalType": "uint256",
              "name": "loanAmount",
              "type": "uint256"
            },
            {
              "internalType": "uint256",
              "name": "interestRate",
              "type": "uint256"
            },
            {
              "internalType": "uint256",
              "name": "proposalId",
              "type": "uint256"
            },
            {
              "internalType": "uint256",
              "name": "time",
              "type": "uint256"
            },
            {
              "internalType": "enum Lending.LoanState",
              "name": "state",
              "type": "uint8"
            }
          ],
          "internalType": "struct Lending.Loan[]",
          "name": "",
          "type": "tuple[]"
        }
      ],
      "payable": false,
      "stateMutability": "view",
      "type": "function"
    },
    {
      "constant": true,
      "inputs": [],
      "name": "getAllProposals",
      "outputs": [
        {
          "components": [
            {
              "internalType": "uint256",
              "name": "proposalId",
              "type": "uint256"
            },
            {
              "internalType": "address",
              "name": "borrower",
              "type": "address"
            },
            {
              "internalType": "uint256",
              "name": "amount",
              "type": "uint256"
            },
            {
              "internalType": "uint256",
              "name": "time",
              "type": "uint256"
            },
            {
              "internalType": "string",
              "name": "mortgage",
              "type": "string"
            },
            {
              "internalType": "enum Lending.ProposalState",
              "name": "state",
              "type": "uint8"
            },
            {
              "internalType": "bool",
              "name": "sendMoney",
              "type": "bool"
            }
          ],
          "internalType": "struct Lending.Proposal[]",
          "name": "",
          "type": "tuple[]"
        }
      ],
      "payable": false,
      "stateMutability": "view",
      "type": "function"
    },
    {
      "constant": true,
      "inputs": [],
      "name": "getAllLoans",
      "outputs": [
        {
          "components": [
            {
              "internalType": "uint256",
              "name": "loanId",
              "type": "uint256"
            },
            {
              "internalType": "address",
              "name": "lender",
              "type": "address"
            },
            {
              "internalType": "uint256",
              "name": "loanAmount",
              "type": "uint256"
            },
            {
              "internalType": "uint256",
              "name": "interestRate",
              "type": "uint256"
            },
            {
              "internalType": "uint256",
              "name": "proposalId",
              "type": "uint256"
            },
            {
              "internalType": "uint256",
              "name": "time",
              "type": "uint256"
            },
            {
              "internalType": "enum Lending.LoanState",
              "name": "state",
              "type": "uint8"
            }
          ],
          "internalType": "struct Lending.Loan[]",
          "name": "",
          "type": "tuple[]"
        }
      ],
      "payable": false,
      "stateMutability": "view",
      "type": "function"
    },
    {
      "constant": false,
      "inputs": [
        {
          "internalType": "uint256",
          "name": "_loanId",
          "type": "uint256"
        },
        {
          "internalType": "uint256",
          "name": "_proposalId",
          "type": "uint256"
        }
      ],
      "name": "acceptLender",
      "outputs": [],
      "payable": false,
      "stateMutability": "nonpayable",
      "type": "function"
    },
    {
      "constant": false,
      "inputs": [
        {
          "internalType": "uint256",
          "name": "_loanId",
          "type": "uint256"
        }
      ],
      "name": "loanPaid",
      "outputs": [],
      "payable": false,
      "stateMutability": "nonpayable",
      "type": "function"
    }
  ],
  "bytecode": "0x608060405234801561001057600080fd5b5061189d806100206000396000f3fe6080604052600436106100c25760003560e01c8063a5bfd16a1161007f578063c54f3eae11610059578063c54f3eae14610279578063cceb68f5146102a2578063e1ec3c68146102cd578063e8aaf98814610310576100c2565b8063a5bfd16a146101e8578063b99c56c514610213578063bc254c0014610250576100c2565b80630133e1d8146100c7578063013cf08b146100f0578063424959371461013357806346df13471461013d5780637028122d146101805780639dfe47cd146101bd575b600080fd5b3480156100d357600080fd5b506100ee60048036036100e99190810190611188565b610339565b005b3480156100fc57600080fd5b50610117600480360361011291908101906110bc565b610502565b60405161012a9796959493929190611567565b60405180910390f35b61013b610623565b005b34801561014957600080fd5b50610164600480360361015f91908101906110bc565b610625565b60405161017797969594939291906115dd565b60405180910390f35b34801561018c57600080fd5b506101a760048036036101a291908101906110bc565b6106a1565b6040516101b49190611508565b60405180910390f35b3480156101c957600080fd5b506101d26106d4565b6040516101df9190611523565b60405180910390f35b3480156101f457600080fd5b506101fd6107e8565b60405161020a9190611523565b60405180910390f35b34801561021f57600080fd5b5061023a600480360361023591908101906110bc565b6108fc565b6040516102479190611508565b60405180910390f35b34801561025c57600080fd5b50610277600480360361027291908101906110e5565b61092f565b005b34801561028557600080fd5b506102a0600480360361029b91908101906110bc565b610b7f565b005b3480156102ae57600080fd5b506102b7610bc2565b6040516102c49190611545565b60405180910390f35b3480156102d957600080fd5b506102f460048036036102ef91908101906110bc565b610d7f565b60405161030797969594939291906115dd565b60405180910390f35b34801561031c57600080fd5b5061033760048036036103329190810190611121565b610dfb565b005b6000600180549050905060016040518060e001604052808381526020013373ffffffffffffffffffffffffffffffffffffffff1681526020018681526020018581526020018481526020014281526020016002600481111561039757fe5b815250908060018154018082558091505090600182039060005260206000209060070201600090919290919091506000820151816000015560208201518160010160006101000a81548173ffffffffffffffffffffffffffffffffffffffff021916908373ffffffffffffffffffffffffffffffffffffffff16021790555060408201518160020155606082015181600301556080820151816004015560a0820151816005015560c08201518160060160006101000a81548160ff0219169083600481111561046257fe5b0217905550505050336004600083815260200190815260200160002060006101000a81548173ffffffffffffffffffffffffffffffffffffffff021916908373ffffffffffffffffffffffffffffffffffffffff1602179055506001600083815481106104cb57fe5b906000526020600020906006020160050160006101000a81548160ff021916908360028111156104f757fe5b021790555050505050565b6000818154811061050f57fe5b90600052602060002090600602016000915090508060000154908060010160009054906101000a900473ffffffffffffffffffffffffffffffffffffffff1690806002015490806003015490806004018054600181600116156101000203166002900480601f0160208091040260200160405190810160405280929190818152602001828054600181600116156101000203166002900480156105f35780601f106105c8576101008083540402835291602001916105f3565b820191906000526020600020905b8154815290600101906020018083116105d657829003601f168201915b5050505050908060050160009054906101000a900460ff16908060050160019054906101000a900460ff16905087565b565b6001818154811061063257fe5b90600052602060002090600702016000915090508060000154908060010160009054906101000a900473ffffffffffffffffffffffffffffffffffffffff16908060020154908060030154908060040154908060050154908060060160009054906101000a900460ff16905087565b60046020528060005260406000206000915054906101000a900473ffffffffffffffffffffffffffffffffffffffff1681565b60606001805480602002602001604051908101604052809291908181526020016000905b828210156107df57838290600052602060002090600702016040518060e0016040529081600082015481526020016001820160009054906101000a900473ffffffffffffffffffffffffffffffffffffffff1673ffffffffffffffffffffffffffffffffffffffff1673ffffffffffffffffffffffffffffffffffffffff168152602001600282015481526020016003820154815260200160048201548152602001600582015481526020016006820160009054906101000a900460ff1660048111156107c157fe5b60048111156107cc57fe5b81525050815260200190600101906106f8565b50505050905090565b60606002805480602002602001604051908101604052809291908181526020016000905b828210156108f357838290600052602060002090600702016040518060e0016040529081600082015481526020016001820160009054906101000a900473ffffffffffffffffffffffffffffffffffffffff1673ffffffffffffffffffffffffffffffffffffffff1673ffffffffffffffffffffffffffffffffffffffff168152602001600282015481526020016003820154815260200160048201548152602001600582015481526020016006820160009054906101000a900460ff1660048111156108d557fe5b60048111156108e057fe5b815250508152602001906001019061080c565b50505050905090565b60036020528060005260406000206000915054906101000a900473ffffffffffffffffffffffffffffffffffffffff1681565b60026040518060e001604052808481526020016004600086815260200190815260200160002060009054906101000a900473ffffffffffffffffffffffffffffffffffffffff1673ffffffffffffffffffffffffffffffffffffffff1681526020016001858154811061099e57fe5b9060005260206000209060070201600201548152602001600185815481106109c257fe5b9060005260206000209060070201600301548152602001838152602001428152602001600360048111156109f257fe5b815250908060018154018082558091505090600182039060005260206000209060070201600090919290919091506000820151816000015560208201518160010160006101000a81548173ffffffffffffffffffffffffffffffffffffffff021916908373ffffffffffffffffffffffffffffffffffffffff16021790555060408201518160020155606082015181600301556080820151816004015560a0820151816005015560c08201518160060160006101000a81548160ff02191690836004811115610abd57fe5b02179055505050506000808281548110610ad357fe5b906000526020600020906006020160050160006101000a81548160ff02191690836002811115610aff57fe5b0217905550600360018381548110610b1357fe5b906000526020600020906007020160060160006101000a81548160ff02191690836004811115610b3f57fe5b0217905550600160008281548110610b5357fe5b906000526020600020906006020160050160016101000a81548160ff0219169083151502179055505050565b600060018281548110610b8e57fe5b906000526020600020906007020160060160006101000a81548160ff02191690836004811115610bba57fe5b021790555050565b60606000805480602002602001604051908101604052809291908181526020016000905b82821015610d7657838290600052602060002090600602016040518060e0016040529081600082015481526020016001820160009054906101000a900473ffffffffffffffffffffffffffffffffffffffff1673ffffffffffffffffffffffffffffffffffffffff1673ffffffffffffffffffffffffffffffffffffffff1681526020016002820154815260200160038201548152602001600482018054600181600116156101000203166002900480601f016020809104026020016040519081016040528092919081815260200182805460018160011615610100020316600290048015610d165780601f10610ceb57610100808354040283529160200191610d16565b820191906000526020600020905b815481529060010190602001808311610cf957829003601f168201915b505050505081526020016005820160009054906101000a900460ff166002811115610d3d57fe5b6002811115610d4857fe5b81526020016005820160019054906101000a900460ff16151515158152505081526020019060010190610be6565b50505050905090565b60028181548110610d8c57fe5b90600052602060002090600702016000915090508060000154908060010160009054906101000a900473ffffffffffffffffffffffffffffffffffffffff16908060020154908060030154908060040154908060050154908060060160009054906101000a900460ff16905087565b60008080549050905060006040518060e001604052808381526020013373ffffffffffffffffffffffffffffffffffffffff168152602001868152602001858152602001848152602001600280811115610e5157fe5b815260200160001515815250908060018154018082558091505090600182039060005260206000209060060201600090919290919091506000820151816000015560208201518160010160006101000a81548173ffffffffffffffffffffffffffffffffffffffff021916908373ffffffffffffffffffffffffffffffffffffffff16021790555060408201518160020155606082015181600301556080820151816004019080519060200190610f09929190610fae565b5060a08201518160050160006101000a81548160ff02191690836002811115610f2e57fe5b021790555060c08201518160050160016101000a81548160ff021916908315150217905550505050336003600083815260200190815260200160002060006101000a81548173ffffffffffffffffffffffffffffffffffffffff021916908373ffffffffffffffffffffffffffffffffffffffff16021790555050505050565b828054600181600116156101000203166002900490600052602060002090601f016020900481019282601f10610fef57805160ff191683800117855561101d565b8280016001018555821561101d579182015b8281111561101c578251825591602001919060010190611001565b5b50905061102a919061102e565b5090565b61105091905b8082111561104c576000816000905550600101611034565b5090565b90565b600082601f83011261106457600080fd5b813561107761107282611679565b61164c565b9150808252602083016020830185838301111561109357600080fd5b61109e8382846117d6565b50505092915050565b6000813590506110b681611843565b92915050565b6000602082840312156110ce57600080fd5b60006110dc848285016110a7565b91505092915050565b600080604083850312156110f857600080fd5b6000611106858286016110a7565b9250506020611117858286016110a7565b9150509250929050565b60008060006060848603121561113657600080fd5b6000611144868287016110a7565b9350506020611155868287016110a7565b925050604084013567ffffffffffffffff81111561117257600080fd5b61117e86828701611053565b9150509250925092565b60008060006060848603121561119d57600080fd5b60006111ab868287016110a7565b93505060206111bc868287016110a7565b92505060406111cd868287016110a7565b9150509250925092565b60006111e383836113c0565b60e08301905092915050565b60006111fb838361144e565b905092915050565b61120c81611744565b82525050565b61121b81611744565b82525050565b600061122c826116c5565b6112368185611700565b9350611241836116a5565b8060005b8381101561127257815161125988826111d7565b9750611264836116e6565b925050600181019050611245565b5085935050505092915050565b600061128a826116d0565b6112948185611711565b9350836020820285016112a6856116b5565b8060005b858110156112e257848403895281516112c385826111ef565b94506112ce836116f3565b925060208a019950506001810190506112aa565b50829750879550505050505092915050565b6112fd81611756565b82525050565b61130c81611756565b82525050565b61131b816117b2565b82525050565b61132a816117b2565b82525050565b611339816117c4565b82525050565b611348816117c4565b82525050565b6000611359826116db565b6113638185611722565b93506113738185602086016117e5565b61137c81611818565b840191505092915050565b6000611392826116db565b61139c8185611733565b93506113ac8185602086016117e5565b6113b581611818565b840191505092915050565b60e0820160008201516113d660008501826114ea565b5060208201516113e96020850182611203565b5060408201516113fc60408501826114ea565b50606082015161140f60608501826114ea565b50608082015161142260808501826114ea565b5060a082015161143560a08501826114ea565b5060c082015161144860c0850182611312565b50505050565b600060e08301600083015161146660008601826114ea565b5060208301516114796020860182611203565b50604083015161148c60408601826114ea565b50606083015161149f60608601826114ea565b50608083015184820360808601526114b7828261134e565b91505060a08301516114cc60a0860182611330565b5060c08301516114df60c08601826112f4565b508091505092915050565b6114f3816117a8565b82525050565b611502816117a8565b82525050565b600060208201905061151d6000830184611212565b92915050565b6000602082019050818103600083015261153d8184611221565b905092915050565b6000602082019050818103600083015261155f818461127f565b905092915050565b600060e08201905061157c600083018a6114f9565b6115896020830189611212565b61159660408301886114f9565b6115a360608301876114f9565b81810360808301526115b58186611387565b90506115c460a083018561133f565b6115d160c0830184611303565b98975050505050505050565b600060e0820190506115f2600083018a6114f9565b6115ff6020830189611212565b61160c60408301886114f9565b61161960608301876114f9565b61162660808301866114f9565b61163360a08301856114f9565b61164060c0830184611321565b98975050505050505050565b6000604051905081810181811067ffffffffffffffff8211171561166f57600080fd5b8060405250919050565b600067ffffffffffffffff82111561169057600080fd5b601f19601f8301169050602081019050919050565b6000819050602082019050919050565b6000819050602082019050919050565b600081519050919050565b600081519050919050565b600081519050919050565b6000602082019050919050565b6000602082019050919050565b600082825260208201905092915050565b600082825260208201905092915050565b600082825260208201905092915050565b600082825260208201905092915050565b600061174f82611788565b9050919050565b60008115159050919050565b600081905061177082611829565b919050565b600081905061178382611836565b919050565b600073ffffffffffffffffffffffffffffffffffffffff82169050919050565b6000819050919050565b60006117bd82611762565b9050919050565b60006117cf82611775565b9050919050565b82818337600083830152505050565b60005b838110156118035780820151818401526020810190506117e8565b83811115611812576000848401525b50505050565b6000601f19601f8301169050919050565b6005811061183357fe5b50565b6003811061184057fe5b50565b61184c816117a8565b811461185757600080fd5b5056fea365627a7a72315820fa99575f2d1fe903a864ff11dc2f3e39877543f3440babee6b2db62afe8fe27e6c6578706572696d656e74616cf564736f6c63430005100040",
  "source": "// SPDX-License-Identifier: MIT\r\npragma solidity >=0.4.22 <0.9.0;\r\npragma experimental ABIEncoderV2;\r\n\r\nimport \"./SafeMath.sol\";\r\n\r\ncontract Lending {\r\n    using SafeMath for uint256;\r\n    using SafeMath for uint256;\r\n\r\n    enum ProposalState {\r\n        ACCEPTED,\r\n        ACCEPTING,\r\n        WAITING\r\n    }\r\n    enum LoanState {\r\n        REPAID,\r\n        ACCEPTED,\r\n        WAITING,\r\n        PAID,\r\n        FAILED\r\n    }\r\n\r\n    // borrower\r\n    struct Proposal {\r\n        uint256 proposalId;\r\n        address borrower;\r\n        uint256 amount;\r\n        uint256 time;\r\n        string mortgage;\r\n        ProposalState state;\r\n        bool sendMoney;\r\n    }\r\n\r\n    struct Loan {\r\n        uint256 loanId;\r\n        address lender;\r\n        uint256 loanAmount;\r\n        uint256 interestRate;\r\n        uint256 proposalId; // not sure?\r\n        uint256 time;\r\n        LoanState state;\r\n    }\r\n\r\n    Proposal[] public proposals;\r\n    Loan[] public potential_lenders;\r\n    Loan[] public loans;\r\n\r\n    mapping(uint256 => address) public proposalToBorrower;\r\n    mapping(uint256 => address) public loanToLender;\r\n\r\n    function createProposal(\r\n        uint256 _loanAmount,\r\n        uint256 _time,\r\n        string memory _mortgage\r\n    ) public {\r\n        //change loanAmount to amount?\r\n        uint256 _proposalId = proposals.length;\r\n        proposals.push(\r\n            Proposal(\r\n                _proposalId,\r\n                msg.sender,\r\n                _loanAmount,\r\n                _time,\r\n                _mortgage,\r\n                ProposalState.WAITING,\r\n                false\r\n            )\r\n        );\r\n\r\n        proposalToBorrower[_proposalId] = msg.sender;\r\n    }\r\n\r\n    function acceptProposal(\r\n        uint256 _loanAmount,\r\n        uint256 _interestRate,\r\n        uint256 _proposalId\r\n    ) public {\r\n        uint256 _loanId = potential_lenders.length;\r\n        potential_lenders.push(\r\n            Loan(\r\n                _loanId,\r\n                msg.sender,\r\n                _loanAmount,\r\n                _interestRate,\r\n                _proposalId,\r\n                block.timestamp,\r\n                LoanState.WAITING\r\n            )\r\n        );\r\n        loanToLender[_loanId] = msg.sender;\r\n        proposals[_proposalId].state = ProposalState.ACCEPTING;\r\n    }\r\n\r\n    function sendETHtoContract() public payable {\r\n        //msg.value is the amount of wei that the msg.sender sent with this transaction.\r\n        //If the transaction doesn't fail, then the contract now has this ETH.\r\n    }\r\n\r\n    function getAllPotentialLenders() public view returns (Loan[] memory) {\r\n        return potential_lenders;\r\n    }\r\n\r\n    function getAllProposals() public view returns (Proposal[] memory) {\r\n        return proposals;\r\n    }\r\n\r\n    function getAllLoans() public view returns (Loan[] memory) {\r\n        return loans;\r\n    }\r\n\r\n    function acceptLender(uint256 _loanId, uint256 _proposalId) public {\r\n        loans.push(\r\n            Loan(\r\n                _loanId,\r\n                loanToLender[_loanId],\r\n                potential_lenders[_loanId].loanAmount,\r\n                potential_lenders[_loanId].interestRate,\r\n                _proposalId,\r\n                block.timestamp,\r\n                LoanState.PAID\r\n            )\r\n        );\r\n\r\n        proposals[_proposalId].state = ProposalState.ACCEPTED;\r\n\r\n        potential_lenders[_loanId].state = LoanState.PAID;\r\n\r\n        proposals[_proposalId].sendMoney = true;\r\n\r\n        // (bool success, ) = msg.sender.call.value(\r\n        //     potential_lenders[_loanId].loanAmount\r\n        // )(\"\");\r\n        // require(success, \"Transfer failed.\");\r\n    }\r\n\r\n    // function repayAmount(uint256 _loanId) public view returns (uint256) {\r\n    //     if (loans[_loanId].state == LoanState.ACCEPTED) {\r\n    //         uint256 startTime = loans[_loanId].time;\r\n    //         uint256 finalAmount = 0;\r\n    //         uint256 principalValue = loans[_loanId].loanAmount;\r\n    //         uint256 paymentTime = block.timestamp;\r\n    //         uint256 interestRate = loans[_loanId].interestRate;\r\n    //         uint256 loanTime = paymentTime - startTime;\r\n\r\n    //         uint256 interest = (\r\n    //             principalValue.mul(interestRate).mul(loanTime)\r\n    //         ) / (365 * 24 * 60 * 60 * 100);\r\n\r\n    //         finalAmount.add(interest);\r\n    //         finalAmount.add(principalValue);\r\n\r\n    //         return finalAmount;\r\n    //     }\r\n    // }\r\n\r\n    function loanPaid(uint256 _loanId) public {\r\n        potential_lenders[_loanId].state = LoanState.REPAID;\r\n    }\r\n}\r\n",
  "sourcePath": "D:\\Studies\\coding\\blockchain\\DeFi-P2P-Lender\\contracts\\Lending.sol",
  "compiler": {
    "name": "solc",
    "version": "0.5.16+commit.9c3226ce.Emscripten.clang"
  },
  "schemaVersion": "3.4.3",
  "updatedAt": "2021-11-13T02:43:35.002Z",
  "networkType": "ethereum",
  "devdoc": {
    "methods": {}
  },
  "userdoc": {
    "methods": {}
  }
}