{
  "contractName": "Lending",
  "abi": [
    {
      "constant": true,
      "inputs": [
        {
          "internalType": "uint256",
          "name": "",
          "type": "uint256"
        }
      ],
      "name": "loanToLender",
      "outputs": [
        {
          "internalType": "address",
          "name": "",
          "type": "address"
        }
      ],
      "payable": false,
      "stateMutability": "view",
      "type": "function"
    },
    {
      "constant": true,
      "inputs": [
        {
          "internalType": "uint256",
          "name": "",
          "type": "uint256"
        }
      ],
      "name": "loans",
      "outputs": [
        {
          "internalType": "uint256",
          "name": "loanId",
          "type": "uint256"
        },
        {
          "internalType": "address",
          "name": "lender",
          "type": "address"
        },
        {
          "internalType": "uint256",
          "name": "loanAmount",
          "type": "uint256"
        },
        {
          "internalType": "uint256",
          "name": "interestRate",
          "type": "uint256"
        },
        {
          "internalType": "uint256",
          "name": "proposalId",
          "type": "uint256"
        },
        {
          "internalType": "uint256",
          "name": "time",
          "type": "uint256"
        },
        {
          "internalType": "enum Lending.LoanState",
          "name": "state",
          "type": "uint8"
        }
      ],
      "payable": false,
      "stateMutability": "view",
      "type": "function"
    },
    {
      "constant": true,
      "inputs": [
        {
          "internalType": "uint256",
          "name": "",
          "type": "uint256"
        }
      ],
      "name": "potential_lenders",
      "outputs": [
        {
          "internalType": "uint256",
          "name": "loanId",
          "type": "uint256"
        },
        {
          "internalType": "address",
          "name": "lender",
          "type": "address"
        },
        {
          "internalType": "uint256",
          "name": "loanAmount",
          "type": "uint256"
        },
        {
          "internalType": "uint256",
          "name": "interestRate",
          "type": "uint256"
        },
        {
          "internalType": "uint256",
          "name": "proposalId",
          "type": "uint256"
        },
        {
          "internalType": "uint256",
          "name": "time",
          "type": "uint256"
        },
        {
          "internalType": "enum Lending.LoanState",
          "name": "state",
          "type": "uint8"
        }
      ],
      "payable": false,
      "stateMutability": "view",
      "type": "function"
    },
    {
      "constant": true,
      "inputs": [
        {
          "internalType": "uint256",
          "name": "",
          "type": "uint256"
        }
      ],
      "name": "proposalToBorrower",
      "outputs": [
        {
          "internalType": "address",
          "name": "",
          "type": "address"
        }
      ],
      "payable": false,
      "stateMutability": "view",
      "type": "function"
    },
    {
      "constant": true,
      "inputs": [
        {
          "internalType": "uint256",
          "name": "",
          "type": "uint256"
        }
      ],
      "name": "proposals",
      "outputs": [
        {
          "internalType": "address",
          "name": "borrower",
          "type": "address"
        },
        {
          "internalType": "uint256",
          "name": "amount",
          "type": "uint256"
        },
        {
          "internalType": "uint256",
          "name": "time",
          "type": "uint256"
        },
        {
          "internalType": "string",
          "name": "mortgage",
          "type": "string"
        },
        {
          "internalType": "enum Lending.ProposalState",
          "name": "state",
          "type": "uint8"
        }
      ],
      "payable": false,
      "stateMutability": "view",
      "type": "function"
    },
    {
      "constant": false,
      "inputs": [
        {
          "internalType": "uint256",
          "name": "_loanAmount",
          "type": "uint256"
        },
        {
          "internalType": "uint256",
          "name": "_time",
          "type": "uint256"
        },
        {
          "internalType": "string",
          "name": "_mortgage",
          "type": "string"
        }
      ],
      "name": "createProposal",
      "outputs": [],
      "payable": false,
      "stateMutability": "nonpayable",
      "type": "function"
    },
    {
      "constant": false,
      "inputs": [
        {
          "internalType": "uint256",
          "name": "_loanAmount",
          "type": "uint256"
        },
        {
          "internalType": "uint256",
          "name": "_interestRate",
          "type": "uint256"
        },
        {
          "internalType": "uint256",
          "name": "_proposalId",
          "type": "uint256"
        }
      ],
      "name": "acceptProposal",
      "outputs": [],
      "payable": false,
      "stateMutability": "nonpayable",
      "type": "function"
    },
    {
      "constant": false,
      "inputs": [],
      "name": "sendETHtoContract",
      "outputs": [],
      "payable": true,
      "stateMutability": "payable",
      "type": "function"
    },
    {
      "constant": true,
      "inputs": [],
      "name": "getAllPotentialLenders",
      "outputs": [
        {
          "components": [
            {
              "internalType": "uint256",
              "name": "loanId",
              "type": "uint256"
            },
            {
              "internalType": "address",
              "name": "lender",
              "type": "address"
            },
            {
              "internalType": "uint256",
              "name": "loanAmount",
              "type": "uint256"
            },
            {
              "internalType": "uint256",
              "name": "interestRate",
              "type": "uint256"
            },
            {
              "internalType": "uint256",
              "name": "proposalId",
              "type": "uint256"
            },
            {
              "internalType": "uint256",
              "name": "time",
              "type": "uint256"
            },
            {
              "internalType": "enum Lending.LoanState",
              "name": "state",
              "type": "uint8"
            }
          ],
          "internalType": "struct Lending.Loan[]",
          "name": "",
          "type": "tuple[]"
        }
      ],
      "payable": false,
      "stateMutability": "view",
      "type": "function"
    },
    {
      "constant": true,
      "inputs": [],
      "name": "getAllProposals",
      "outputs": [
        {
          "components": [
            {
              "internalType": "address",
              "name": "borrower",
              "type": "address"
            },
            {
              "internalType": "uint256",
              "name": "amount",
              "type": "uint256"
            },
            {
              "internalType": "uint256",
              "name": "time",
              "type": "uint256"
            },
            {
              "internalType": "string",
              "name": "mortgage",
              "type": "string"
            },
            {
              "internalType": "enum Lending.ProposalState",
              "name": "state",
              "type": "uint8"
            }
          ],
          "internalType": "struct Lending.Proposal[]",
          "name": "",
          "type": "tuple[]"
        }
      ],
      "payable": false,
      "stateMutability": "view",
      "type": "function"
    },
    {
      "constant": false,
      "inputs": [
        {
          "internalType": "uint256",
          "name": "_loanId",
          "type": "uint256"
        },
        {
          "internalType": "uint256",
          "name": "_proposalId",
          "type": "uint256"
        }
      ],
      "name": "acceptLender",
      "outputs": [],
      "payable": true,
      "stateMutability": "payable",
      "type": "function"
    },
    {
      "constant": false,
      "inputs": [
        {
          "internalType": "uint256",
          "name": "_loanId",
          "type": "uint256"
        }
      ],
      "name": "repayLoan",
      "outputs": [],
      "payable": true,
      "stateMutability": "payable",
      "type": "function"
    }
  ],
  "bytecode": "0x608060405234801561001057600080fd5b506117e4806100206000396000f3fe6080604052600436106100a75760003560e01c8063ab7b1c8911610064578063ab7b1c89146101cb578063b99c56c5146101e7578063bc254c0014610224578063cceb68f514610240578063e1ec3c681461026b578063e8aaf988146102ae576100a7565b80630133e1d8146100ac578063013cf08b146100d5578063424959371461011657806346df1347146101205780637028122d146101635780639dfe47cd146101a0575b600080fd5b3480156100b857600080fd5b506100d360048036036100ce91908101906110a1565b6102d7565b005b3480156100e157600080fd5b506100fc60048036036100f79190810190610fd5565b6104a1565b60405161010d959493929190611467565b60405180910390f35b61011e6105a9565b005b34801561012c57600080fd5b5061014760048036036101429190810190610fd5565b6105ab565b60405161015a9796959493929190611525565b60405180910390f35b34801561016f57600080fd5b5061018a60048036036101859190810190610fd5565b610627565b604051610197919061144c565b60405180910390f35b3480156101ac57600080fd5b506101b561065a565b6040516101c291906114c1565b60405180910390f35b6101e560048036036101e09190810190610fd5565b61076e565b005b3480156101f357600080fd5b5061020e60048036036102099190810190610fd5565b61085e565b60405161021b919061144c565b60405180910390f35b61023e60048036036102399190810190610ffe565b610891565b005b34801561024c57600080fd5b50610255610b35565b60405161026291906114e3565b60405180910390f35b34801561027757600080fd5b50610292600480360361028d9190810190610fd5565b610ccd565b6040516102a59796959493929190611525565b60405180910390f35b3480156102ba57600080fd5b506102d560048036036102d0919081019061103a565b610d49565b005b6000600180549050905060016040518060e001604052808381526020013373ffffffffffffffffffffffffffffffffffffffff168152602001868152602001858152602001848152602001600081526020016002600481111561033657fe5b815250908060018154018082558091505090600182039060005260206000209060070201600090919290919091506000820151816000015560208201518160010160006101000a81548173ffffffffffffffffffffffffffffffffffffffff021916908373ffffffffffffffffffffffffffffffffffffffff16021790555060408201518160020155606082015181600301556080820151816004015560a0820151816005015560c08201518160060160006101000a81548160ff0219169083600481111561040157fe5b0217905550505050336004600083815260200190815260200160002060006101000a81548173ffffffffffffffffffffffffffffffffffffffff021916908373ffffffffffffffffffffffffffffffffffffffff16021790555060016000838154811061046a57fe5b906000526020600020906005020160040160006101000a81548160ff0219169083600281111561049657fe5b021790555050505050565b600081815481106104ae57fe5b90600052602060002090600502016000915090508060000160009054906101000a900473ffffffffffffffffffffffffffffffffffffffff1690806001015490806002015490806003018054600181600116156101000203166002900480601f01602080910402602001604051908101604052809291908181526020018280546001816001161561010002031660029004801561058c5780601f106105615761010080835404028352916020019161058c565b820191906000526020600020905b81548152906001019060200180831161056f57829003601f168201915b5050505050908060040160009054906101000a900460ff16905085565b565b600181815481106105b857fe5b90600052602060002090600702016000915090508060000154908060010160009054906101000a900473ffffffffffffffffffffffffffffffffffffffff16908060020154908060030154908060040154908060050154908060060160009054906101000a900460ff16905087565b60046020528060005260406000206000915054906101000a900473ffffffffffffffffffffffffffffffffffffffff1681565b60606001805480602002602001604051908101604052809291908181526020016000905b8282101561076557838290600052602060002090600702016040518060e0016040529081600082015481526020016001820160009054906101000a900473ffffffffffffffffffffffffffffffffffffffff1673ffffffffffffffffffffffffffffffffffffffff1673ffffffffffffffffffffffffffffffffffffffff168152602001600282015481526020016003820154815260200160048201548152602001600582015481526020016006820160009054906101000a900460ff16600481111561074757fe5b600481111561075257fe5b815250508152602001906001019061067e565b50505050905090565b60003373ffffffffffffffffffffffffffffffffffffffff163460405161079490611437565b60006040518083038185875af1925050503d80600081146107d1576040519150601f19603f3d011682016040523d82523d6000602084013e6107d6565b606091505b505090508061081a576040517f08c379a000000000000000000000000000000000000000000000000000000000815260040161081190611505565b60405180910390fd5b60006002838154811061082957fe5b906000526020600020906007020160060160006101000a81548160ff0219169083600481111561085557fe5b02179055505050565b60036020528060005260406000206000915054906101000a900473ffffffffffffffffffffffffffffffffffffffff1681565b60026040518060e001604052808481526020016004600086815260200190815260200160002060009054906101000a900473ffffffffffffffffffffffffffffffffffffffff1673ffffffffffffffffffffffffffffffffffffffff1681526020016001858154811061090057fe5b90600052602060002090600702016002015481526020016001858154811061092457fe5b90600052602060002090600702016003015481526020018381526020014281526020016003600481111561095457fe5b815250908060018154018082558091505090600182039060005260206000209060070201600090919290919091506000820151816000015560208201518160010160006101000a81548173ffffffffffffffffffffffffffffffffffffffff021916908373ffffffffffffffffffffffffffffffffffffffff16021790555060408201518160020155606082015181600301556080820151816004015560a0820151816005015560c08201518160060160006101000a81548160ff02191690836004811115610a1f57fe5b02179055505050506000808281548110610a3557fe5b906000526020600020906005020160040160006101000a81548160ff02191690836002811115610a6157fe5b021790555060003373ffffffffffffffffffffffffffffffffffffffff1660018481548110610a8c57fe5b906000526020600020906007020160020154604051610aaa90611437565b60006040518083038185875af1925050503d8060008114610ae7576040519150601f19603f3d011682016040523d82523d6000602084013e610aec565b606091505b5050905080610b30576040517f08c379a0000000000000000000000000000000000000000000000000000000008152600401610b2790611505565b60405180910390fd5b505050565b60606000805480602002602001604051908101604052809291908181526020016000905b82821015610cc457838290600052602060002090600502016040518060a00160405290816000820160009054906101000a900473ffffffffffffffffffffffffffffffffffffffff1673ffffffffffffffffffffffffffffffffffffffff1673ffffffffffffffffffffffffffffffffffffffff1681526020016001820154815260200160028201548152602001600382018054600181600116156101000203166002900480601f016020809104026020016040519081016040528092919081815260200182805460018160011615610100020316600290048015610c7f5780601f10610c5457610100808354040283529160200191610c7f565b820191906000526020600020905b815481529060010190602001808311610c6257829003601f168201915b505050505081526020016004820160009054906101000a900460ff166002811115610ca657fe5b6002811115610cb157fe5b8152505081526020019060010190610b59565b50505050905090565b60028181548110610cda57fe5b90600052602060002090600702016000915090508060000154908060010160009054906101000a900473ffffffffffffffffffffffffffffffffffffffff16908060020154908060030154908060040154908060050154908060060160009054906101000a900460ff16905087565b60006040518060a001604052803373ffffffffffffffffffffffffffffffffffffffff168152602001858152602001848152602001838152602001600280811115610d9057fe5b8152509080600181540180825580915050906001820390600052602060002090600502016000909192909190915060008201518160000160006101000a81548173ffffffffffffffffffffffffffffffffffffffff021916908373ffffffffffffffffffffffffffffffffffffffff16021790555060208201518160010155604082015181600201556060820151816003019080519060200190610e35929190610ec7565b5060808201518160040160006101000a81548160ff02191690836002811115610e5a57fe5b021790555050505060006001600080549050039050336003600083815260200190815260200160002060006101000a81548173ffffffffffffffffffffffffffffffffffffffff021916908373ffffffffffffffffffffffffffffffffffffffff16021790555050505050565b828054600181600116156101000203166002900490600052602060002090601f016020900481019282601f10610f0857805160ff1916838001178555610f36565b82800160010185558215610f36579182015b82811115610f35578251825591602001919060010190610f1a565b5b509050610f439190610f47565b5090565b610f6991905b80821115610f65576000816000905550600101610f4d565b5090565b90565b600082601f830112610f7d57600080fd5b8135610f90610f8b826115c1565b611594565b91508082526020830160208301858383011115610fac57600080fd5b610fb783828461171d565b50505092915050565b600081359050610fcf8161178a565b92915050565b600060208284031215610fe757600080fd5b6000610ff584828501610fc0565b91505092915050565b6000806040838503121561101157600080fd5b600061101f85828601610fc0565b925050602061103085828601610fc0565b9150509250929050565b60008060006060848603121561104f57600080fd5b600061105d86828701610fc0565b935050602061106e86828701610fc0565b925050604084013567ffffffffffffffff81111561108b57600080fd5b61109786828701610f6c565b9150509250925092565b6000806000606084860312156110b657600080fd5b60006110c486828701610fc0565b93505060206110d586828701610fc0565b92505060406110e686828701610fc0565b9150509250925092565b60006110fc8383611315565b60e08301905092915050565b600061111483836113a3565b905092915050565b61112581611697565b82525050565b61113481611697565b82525050565b60006111458261160d565b61114f8185611648565b935061115a836115ed565b8060005b8381101561118b57815161117288826110f0565b975061117d8361162e565b92505060018101905061115e565b5085935050505092915050565b60006111a382611618565b6111ad8185611659565b9350836020820285016111bf856115fd565b8060005b858110156111fb57848403895281516111dc8582611108565b94506111e78361163b565b925060208a019950506001810190506111c3565b50829750879550505050505092915050565b611216816116f9565b82525050565b611225816116f9565b82525050565b6112348161170b565b82525050565b6112438161170b565b82525050565b600061125482611623565b61125e8185611675565b935061126e81856020860161172c565b6112778161175f565b840191505092915050565b600061128d82611623565b6112978185611686565b93506112a781856020860161172c565b6112b08161175f565b840191505092915050565b60006112c860008361166a565b9150600082019050919050565b60006112e2601083611686565b91507f5472616e73666572206661696c65642e000000000000000000000000000000006000830152602082019050919050565b60e08201600082015161132b6000850182611419565b50602082015161133e602085018261111c565b5060408201516113516040850182611419565b5060608201516113646060850182611419565b5060808201516113776080850182611419565b5060a082015161138a60a0850182611419565b5060c082015161139d60c085018261120d565b50505050565b600060a0830160008301516113bb600086018261111c565b5060208301516113ce6020860182611419565b5060408301516113e16040860182611419565b50606083015184820360608601526113f98282611249565b915050608083015161140e608086018261122b565b508091505092915050565b611422816116ef565b82525050565b611431816116ef565b82525050565b6000611442826112bb565b9150819050919050565b6000602082019050611461600083018461112b565b92915050565b600060a08201905061147c600083018861112b565b6114896020830187611428565b6114966040830186611428565b81810360608301526114a88185611282565b90506114b7608083018461123a565b9695505050505050565b600060208201905081810360008301526114db818461113a565b905092915050565b600060208201905081810360008301526114fd8184611198565b905092915050565b6000602082019050818103600083015261151e816112d5565b9050919050565b600060e08201905061153a600083018a611428565b611547602083018961112b565b6115546040830188611428565b6115616060830187611428565b61156e6080830186611428565b61157b60a0830185611428565b61158860c083018461121c565b98975050505050505050565b6000604051905081810181811067ffffffffffffffff821117156115b757600080fd5b8060405250919050565b600067ffffffffffffffff8211156115d857600080fd5b601f19601f8301169050602081019050919050565b6000819050602082019050919050565b6000819050602082019050919050565b600081519050919050565b600081519050919050565b600081519050919050565b6000602082019050919050565b6000602082019050919050565b600082825260208201905092915050565b600082825260208201905092915050565b600081905092915050565b600082825260208201905092915050565b600082825260208201905092915050565b60006116a2826116cf565b9050919050565b60008190506116b782611770565b919050565b60008190506116ca8261177d565b919050565b600073ffffffffffffffffffffffffffffffffffffffff82169050919050565b6000819050919050565b6000611704826116a9565b9050919050565b6000611716826116bc565b9050919050565b82818337600083830152505050565b60005b8381101561174a57808201518184015260208101905061172f565b83811115611759576000848401525b50505050565b6000601f19601f8301169050919050565b6005811061177a57fe5b50565b6003811061178757fe5b50565b611793816116ef565b811461179e57600080fd5b5056fea365627a7a7231582075b2d5c1618488415e9907b20003298042e060c933d77783ed34c43f0923d1b06c6578706572696d656e74616cf564736f6c63430005100040",
  "source": "// SPDX-License-Identifier: MIT\npragma solidity >=0.4.22 <0.9.0;\npragma experimental ABIEncoderV2;\n\nimport \"./SafeMath.sol\";\n\ncontract Lending {\n    using SafeMath for uint;\n    using SafeMath for uint256;\n\n    enum ProposalState {\n        ACCEPTED,\n        ACCEPTING,\n        WAITING\n    }\n    enum LoanState {\n        REPAID,\n        ACCEPTED,\n        WAITING,\n        PAID,\n        FAILED\n    }\n\n    // borrower\n\n    struct Proposal {\n        address borrower;\n        uint256 amount;\n        uint256 time;\n        string mortgage;\n        ProposalState state;\n    }\n\n    struct Loan {\n        uint256 loanId;\n        address lender;\n        uint256 loanAmount;\n        uint256 interestRate;\n        uint256 proposalId; // not sure?\n        uint256 time;\n        LoanState state;\n    }\n\n    Proposal[] public proposals;\n    Loan[] public potential_lenders;\n    Loan[] public loans;\n\n    mapping(uint256 => address) public proposalToBorrower;\n    mapping(uint256 => address) public loanToLender;\n    function createProposal(\n        uint256 _loanAmount,\n        uint256 _time,\n        string memory _mortgage\n    ) public {\n        //change loanAmount to amount?\n        proposals.push(\n            Proposal(\n                msg.sender,\n                _loanAmount,\n                _time,\n                _mortgage,\n                ProposalState.WAITING\n            )\n        );\n        uint256 _proposalId = proposals.length - 1;\n        proposalToBorrower[_proposalId] = msg.sender;\n    }\n\n    function acceptProposal(\n        uint256 _loanAmount,\n        uint256 _interestRate,\n        uint256 _proposalId\n    ) public {\n        uint256 _loanId = potential_lenders.length;\n        potential_lenders.push(\n            Loan(\n                _loanId,\n                msg.sender,\n                _loanAmount,\n                _interestRate,\n                _proposalId,\n                0,\n                LoanState.WAITING\n            )\n        );\n        loanToLender[_loanId] = msg.sender;\n        proposals[_proposalId].state = ProposalState.ACCEPTING;\n    }\n\n    function sendETHtoContract() public payable {\n        //msg.value is the amount of wei that the msg.sender sent with this transaction.\n        //If the transaction doesn't fail, then the contract now has this ETH.\n    }\n\n    function getAllPotentialLenders() public view returns (Loan[] memory) {\n        return potential_lenders;\n    }\n\n\n    function getAllProposals() public view returns (Proposal[] memory) {\n        return proposals;\n    }\n\n    function acceptLender(uint256 _loanId, uint256 _proposalId) public payable {\n        loans.push(\n            Loan(\n                _loanId,\n                loanToLender[_loanId],\n                potential_lenders[_loanId].loanAmount,\n                potential_lenders[_loanId].interestRate,\n                _proposalId,\n                block.timestamp,\n                LoanState.PAID\n            )\n        );\n\n        proposals[_proposalId].state = ProposalState.ACCEPTED;\n        \n         (bool success, ) = msg.sender.call.value(potential_lenders[_loanId].loanAmount)(\"\");\n         require(success, \"Transfer failed.\");\n        \n    }\n\n    // function repayAmount(uint256 _loanId) public view returns (uint256) {\n    //     if (loans[_loanId].state == LoanState.ACCEPTED) {\n    //         uint256 startTime = loans[_loanId].time;\n    //         uint256 finalAmount = 0;\n    //         uint256 principalValue = loans[_loanId].loanAmount;\n    //         uint256 paymentTime = block.timestamp;\n    //         uint256 interestRate = loans[_loanId].interestRate;\n    //         uint256 loanTime = paymentTime - startTime;\n\n    //         uint256 interest = (\n    //             principalValue.mul(interestRate).mul(loanTime)\n    //         ) / (365 * 24 * 60 * 60 * 100);\n\n    //         finalAmount.add(interest);\n    //         finalAmount.add(principalValue);\n\n    //         return finalAmount;\n    //     }\n    // }\n\n    function repayLoan(uint256 _loanId) public payable {\n        (bool success, ) = msg.sender.call.value(msg.value)(\"\");\n        require(success, \"Transfer failed.\");\n\n        loans[_loanId].state = LoanState.REPAID;\n    }\n}\n",
  "sourcePath": "/home/shreshth/DeFi-P2P-Lender/contracts/Lending.sol",
  "compiler": {
    "name": "solc",
    "version": "0.5.16+commit.9c3226ce.Emscripten.clang"
  },
  "schemaVersion": "3.4.3",
  "updatedAt": "2021-11-12T14:05:40.961Z",
  "networkType": "ethereum",
  "devdoc": {
    "methods": {}
  },
  "userdoc": {
    "methods": {}
  }
}