{
  "contractName": "Lending",
  "abi": [
    {
      "constant": true,
      "inputs": [
        {
          "internalType": "uint256",
          "name": "",
          "type": "uint256"
        }
      ],
      "name": "loanToLender",
      "outputs": [
        {
          "internalType": "address",
          "name": "",
          "type": "address"
        }
      ],
      "payable": false,
      "stateMutability": "view",
      "type": "function"
    },
    {
      "constant": true,
      "inputs": [
        {
          "internalType": "uint256",
          "name": "",
          "type": "uint256"
        }
      ],
      "name": "loans",
      "outputs": [
        {
          "internalType": "uint256",
          "name": "loanId",
          "type": "uint256"
        },
        {
          "internalType": "address",
          "name": "lender",
          "type": "address"
        },
        {
          "internalType": "uint256",
          "name": "loanAmount",
          "type": "uint256"
        },
        {
          "internalType": "uint256",
          "name": "interestRate",
          "type": "uint256"
        },
        {
          "internalType": "uint256",
          "name": "proposalId",
          "type": "uint256"
        },
        {
          "internalType": "uint256",
          "name": "time",
          "type": "uint256"
        },
        {
          "internalType": "enum Lending.LoanState",
          "name": "state",
          "type": "uint8"
        }
      ],
      "payable": false,
      "stateMutability": "view",
      "type": "function"
    },
    {
      "constant": true,
      "inputs": [
        {
          "internalType": "uint256",
          "name": "",
          "type": "uint256"
        }
      ],
      "name": "potential_lenders",
      "outputs": [
        {
          "internalType": "uint256",
          "name": "loanId",
          "type": "uint256"
        },
        {
          "internalType": "address",
          "name": "lender",
          "type": "address"
        },
        {
          "internalType": "uint256",
          "name": "loanAmount",
          "type": "uint256"
        },
        {
          "internalType": "uint256",
          "name": "interestRate",
          "type": "uint256"
        },
        {
          "internalType": "uint256",
          "name": "proposalId",
          "type": "uint256"
        },
        {
          "internalType": "uint256",
          "name": "time",
          "type": "uint256"
        },
        {
          "internalType": "enum Lending.LoanState",
          "name": "state",
          "type": "uint8"
        }
      ],
      "payable": false,
      "stateMutability": "view",
      "type": "function"
    },
    {
      "constant": true,
      "inputs": [
        {
          "internalType": "uint256",
          "name": "",
          "type": "uint256"
        }
      ],
      "name": "proposalToBorrower",
      "outputs": [
        {
          "internalType": "address",
          "name": "",
          "type": "address"
        }
      ],
      "payable": false,
      "stateMutability": "view",
      "type": "function"
    },
    {
      "constant": true,
      "inputs": [
        {
          "internalType": "uint256",
          "name": "",
          "type": "uint256"
        }
      ],
      "name": "proposals",
      "outputs": [
        {
          "internalType": "address",
          "name": "borrower",
          "type": "address"
        },
        {
          "internalType": "uint256",
          "name": "amount",
          "type": "uint256"
        },
        {
          "internalType": "uint256",
          "name": "time",
          "type": "uint256"
        },
        {
          "internalType": "bytes32",
          "name": "mortgage",
          "type": "bytes32"
        },
        {
          "internalType": "enum Lending.ProposalState",
          "name": "state",
          "type": "uint8"
        }
      ],
      "payable": false,
      "stateMutability": "view",
      "type": "function"
    },
    {
      "constant": false,
      "inputs": [
        {
          "internalType": "uint256",
          "name": "_loanAmount",
          "type": "uint256"
        },
        {
          "internalType": "uint256",
          "name": "_time",
          "type": "uint256"
        },
        {
          "internalType": "bytes32",
          "name": "_mortgage",
          "type": "bytes32"
        }
      ],
      "name": "createProposal",
      "outputs": [],
      "payable": false,
      "stateMutability": "nonpayable",
      "type": "function"
    },
    {
      "constant": false,
      "inputs": [
        {
          "internalType": "uint256",
          "name": "_loanAmount",
          "type": "uint256"
        },
        {
          "internalType": "uint256",
          "name": "_interestRate",
          "type": "uint256"
        },
        {
          "internalType": "uint256",
          "name": "_proposalId",
          "type": "uint256"
        }
      ],
      "name": "acceptProposal",
      "outputs": [],
      "payable": false,
      "stateMutability": "nonpayable",
      "type": "function"
    },
    {
      "constant": true,
      "inputs": [],
      "name": "getAllPotentialLenders",
      "outputs": [
        {
          "components": [
            {
              "internalType": "uint256",
              "name": "loanId",
              "type": "uint256"
            },
            {
              "internalType": "address",
              "name": "lender",
              "type": "address"
            },
            {
              "internalType": "uint256",
              "name": "loanAmount",
              "type": "uint256"
            },
            {
              "internalType": "uint256",
              "name": "interestRate",
              "type": "uint256"
            },
            {
              "internalType": "uint256",
              "name": "proposalId",
              "type": "uint256"
            },
            {
              "internalType": "uint256",
              "name": "time",
              "type": "uint256"
            },
            {
              "internalType": "enum Lending.LoanState",
              "name": "state",
              "type": "uint8"
            }
          ],
          "internalType": "struct Lending.Loan[]",
          "name": "",
          "type": "tuple[]"
        }
      ],
      "payable": false,
      "stateMutability": "view",
      "type": "function"
    },
    {
      "constant": false,
      "inputs": [
        {
          "internalType": "uint256",
          "name": "_loanId",
          "type": "uint256"
        },
        {
          "internalType": "uint256",
          "name": "_proposalId",
          "type": "uint256"
        }
      ],
      "name": "acceptLender",
      "outputs": [],
      "payable": true,
      "stateMutability": "payable",
      "type": "function"
    },
    {
      "constant": true,
      "inputs": [
        {
          "internalType": "uint256",
          "name": "_loanId",
          "type": "uint256"
        }
      ],
      "name": "repayAmount",
      "outputs": [
        {
          "internalType": "uint256",
          "name": "",
          "type": "uint256"
        }
      ],
      "payable": false,
      "stateMutability": "view",
      "type": "function"
    },
    {
      "constant": false,
      "inputs": [
        {
          "internalType": "uint256",
          "name": "_loanId",
          "type": "uint256"
        }
      ],
      "name": "repayLoan",
      "outputs": [],
      "payable": true,
      "stateMutability": "payable",
      "type": "function"
    }
  ],
  "bytecode": "0x608060405234801561001057600080fd5b50611726806100206000396000f3fe60806040526004361061009c5760003560e01c80637028122d116100645780637028122d146101b45780639dfe47cd146101f1578063ab7b1c891461021c578063b99c56c514610238578063bc254c0014610275578063e1ec3c68146102915761009c565b80630133e1d8146100a1578063013cf08b146100ca5780631ffda6781461010b5780632e7107a21461014857806346df134714610171575b600080fd5b3480156100ad57600080fd5b506100c860048036036100c3919081019061115c565b6102d4565b005b3480156100d657600080fd5b506100f160048036036100ec91908101906110a8565b61049e565b604051610102959493929190611457565b60405180910390f35b34801561011757600080fd5b50610132600480360361012d91908101906110a8565b61050e565b60405161013f919061152c565b60405180910390f35b34801561015457600080fd5b5061016f600480360361016a919081019061110d565b610647565b005b34801561017d57600080fd5b50610198600480360361019391908101906110a8565b6107b2565b6040516101ab9796959493929190611547565b60405180910390f35b3480156101c057600080fd5b506101db60048036036101d691908101906110a8565b61082e565b6040516101e8919061143c565b60405180910390f35b3480156101fd57600080fd5b50610206610861565b60405161021391906114aa565b60405180910390f35b610236600480360361023191908101906110a8565b610975565b005b34801561024457600080fd5b5061025f600480360361025a91908101906110a8565b610c66565b60405161026c919061143c565b60405180910390f35b61028f600480360361028a91908101906110d1565b610c99565b005b34801561029d57600080fd5b506102b860048036036102b391908101906110a8565b610f3d565b6040516102cb9796959493929190611547565b60405180910390f35b6000600180549050905060016040518060e001604052808381526020013373ffffffffffffffffffffffffffffffffffffffff168152602001868152602001858152602001848152602001600081526020016002600481111561033357fe5b815250908060018154018082558091505090600182039060005260206000209060070201600090919290919091506000820151816000015560208201518160010160006101000a81548173ffffffffffffffffffffffffffffffffffffffff021916908373ffffffffffffffffffffffffffffffffffffffff16021790555060408201518160020155606082015181600301556080820151816004015560a0820151816005015560c08201518160060160006101000a81548160ff021916908360048111156103fe57fe5b0217905550505050336004600083815260200190815260200160002060006101000a81548173ffffffffffffffffffffffffffffffffffffffff021916908373ffffffffffffffffffffffffffffffffffffffff16021790555060016000838154811061046757fe5b906000526020600020906005020160040160006101000a81548160ff0219169083600281111561049357fe5b021790555050505050565b600081815481106104ab57fe5b90600052602060002090600502016000915090508060000160009054906101000a900473ffffffffffffffffffffffffffffffffffffffff16908060010154908060020154908060030154908060040160009054906101000a900460ff16905085565b60006001600481111561051d57fe5b6002838154811061052a57fe5b906000526020600020906007020160060160009054906101000a900460ff16600481111561055457fe5b14156106415760006002838154811061056957fe5b9060005260206000209060070201600501549050600080905060006002858154811061059157fe5b906000526020600020906007020160020154905060004290506000600287815481106105b957fe5b906000526020600020906007020160030154905060008583039050600063bbf81e00610600836105f28689610fb990919063ffffffff16565b610fb990919063ffffffff16565b8161060757fe5b04905061061d818761102990919063ffffffff16565b50610631858761102990919063ffffffff16565b5085975050505050505050610642565b5b919050565b60006040518060a001604052803373ffffffffffffffffffffffffffffffffffffffff16815260200185815260200184815260200183815260200160028081111561068e57fe5b8152509080600181540180825580915050906001820390600052602060002090600502016000909192909190915060008201518160000160006101000a81548173ffffffffffffffffffffffffffffffffffffffff021916908373ffffffffffffffffffffffffffffffffffffffff16021790555060208201518160010155604082015181600201556060820151816003015560808201518160040160006101000a81548160ff0219169083600281111561074557fe5b021790555050505060006001600080549050039050336003600083815260200190815260200160002060006101000a81548173ffffffffffffffffffffffffffffffffffffffff021916908373ffffffffffffffffffffffffffffffffffffffff16021790555050505050565b600181815481106107bf57fe5b90600052602060002090600702016000915090508060000154908060010160009054906101000a900473ffffffffffffffffffffffffffffffffffffffff16908060020154908060030154908060040154908060050154908060060160009054906101000a900460ff16905087565b60046020528060005260406000206000915054906101000a900473ffffffffffffffffffffffffffffffffffffffff1681565b60606001805480602002602001604051908101604052809291908181526020016000905b8282101561096c57838290600052602060002090600702016040518060e0016040529081600082015481526020016001820160009054906101000a900473ffffffffffffffffffffffffffffffffffffffff1673ffffffffffffffffffffffffffffffffffffffff1673ffffffffffffffffffffffffffffffffffffffff168152602001600282015481526020016003820154815260200160048201548152602001600582015481526020016006820160009054906101000a900460ff16600481111561094e57fe5b600481111561095957fe5b8152505081526020019060010190610885565b50505050905090565b60006109808261050e565b90506000349050818110610b73576000828203905060003373ffffffffffffffffffffffffffffffffffffffff16846040516109bb90611427565b60006040518083038185875af1925050503d80600081146109f8576040519150601f19603f3d011682016040523d82523d6000602084013e6109fd565b606091505b5050905080610a41576040517f08c379a0000000000000000000000000000000000000000000000000000000008152600401610a389061150c565b60405180910390fd5b600060028681548110610a5057fe5b906000526020600020906007020160010160009054906101000a900473ffffffffffffffffffffffffffffffffffffffff1673ffffffffffffffffffffffffffffffffffffffff1683604051610aa590611427565b60006040518083038185875af1925050503d8060008114610ae2576040519150601f19603f3d011682016040523d82523d6000602084013e610ae7565b606091505b5050905080610b2b576040517f08c379a0000000000000000000000000000000000000000000000000000000008152600401610b229061150c565b60405180910390fd5b600060028781548110610b3a57fe5b906000526020600020906007020160060160006101000a81548160ff02191690836004811115610b6657fe5b0217905550505050610c61565b60003373ffffffffffffffffffffffffffffffffffffffff1682604051610b9990611427565b60006040518083038185875af1925050503d8060008114610bd6576040519150601f19603f3d011682016040523d82523d6000602084013e610bdb565b606091505b5050905080610c1f576040517f08c379a0000000000000000000000000000000000000000000000000000000008152600401610c169061150c565b60405180910390fd5b600060028581548110610c2e57fe5b906000526020600020906007020160060160006101000a81548160ff02191690836004811115610c5a57fe5b0217905550505b505050565b60036020528060005260406000206000915054906101000a900473ffffffffffffffffffffffffffffffffffffffff1681565b60026040518060e001604052808481526020016004600086815260200190815260200160002060009054906101000a900473ffffffffffffffffffffffffffffffffffffffff1673ffffffffffffffffffffffffffffffffffffffff16815260200160018581548110610d0857fe5b906000526020600020906007020160020154815260200160018581548110610d2c57fe5b906000526020600020906007020160030154815260200183815260200142815260200160036004811115610d5c57fe5b815250908060018154018082558091505090600182039060005260206000209060070201600090919290919091506000820151816000015560208201518160010160006101000a81548173ffffffffffffffffffffffffffffffffffffffff021916908373ffffffffffffffffffffffffffffffffffffffff16021790555060408201518160020155606082015181600301556080820151816004015560a0820151816005015560c08201518160060160006101000a81548160ff02191690836004811115610e2757fe5b02179055505050506000808281548110610e3d57fe5b906000526020600020906005020160040160006101000a81548160ff02191690836002811115610e6957fe5b021790555060003373ffffffffffffffffffffffffffffffffffffffff1660018481548110610e9457fe5b906000526020600020906007020160020154604051610eb290611427565b60006040518083038185875af1925050503d8060008114610eef576040519150601f19603f3d011682016040523d82523d6000602084013e610ef4565b606091505b5050905080610f38576040517f08c379a0000000000000000000000000000000000000000000000000000000008152600401610f2f9061150c565b60405180910390fd5b505050565b60028181548110610f4a57fe5b90600052602060002090600702016000915090508060000154908060010160009054906101000a900473ffffffffffffffffffffffffffffffffffffffff16908060020154908060030154908060040154908060050154908060060160009054906101000a900460ff16905087565b600080831415610fcc5760009050611023565b6000828402905082848281610fdd57fe5b041461101e576040517f08c379a0000000000000000000000000000000000000000000000000000000008152600401611015906114ec565b60405180910390fd5b809150505b92915050565b600080828401905083811015611074576040517f08c379a000000000000000000000000000000000000000000000000000000000815260040161106b906114cc565b60405180910390fd5b8091505092915050565b60008135905061108d816116b5565b92915050565b6000813590506110a2816116cc565b92915050565b6000602082840312156110ba57600080fd5b60006110c884828501611093565b91505092915050565b600080604083850312156110e457600080fd5b60006110f285828601611093565b925050602061110385828601611093565b9150509250929050565b60008060006060848603121561112257600080fd5b600061113086828701611093565b935050602061114186828701611093565b92505060406111528682870161107e565b9150509250925092565b60008060006060848603121561117157600080fd5b600061117f86828701611093565b935050602061119086828701611093565b92505060406111a186828701611093565b9150509250925092565b60006111b7838361137b565b60e08301905092915050565b6111cc8161160b565b82525050565b6111db8161160b565b82525050565b60006111ec826115c6565b6111f681856115de565b9350611201836115b6565b8060005b8381101561123257815161121988826111ab565b9750611224836115d1565b925050600181019050611205565b5085935050505092915050565b6112488161161d565b82525050565b61125781611677565b82525050565b61126681611677565b82525050565b61127581611689565b82525050565b6000611288601b836115fa565b91507f536166654d6174683a206164646974696f6e206f766572666c6f7700000000006000830152602082019050919050565b60006112c86021836115fa565b91507f536166654d6174683a206d756c7469706c69636174696f6e206f766572666c6f60008301527f77000000000000000000000000000000000000000000000000000000000000006020830152604082019050919050565b600061132e6000836115ef565b9150600082019050919050565b60006113486010836115fa565b91507f5472616e73666572206661696c65642e000000000000000000000000000000006000830152602082019050919050565b60e0820160008201516113916000850182611409565b5060208201516113a460208501826111c3565b5060408201516113b76040850182611409565b5060608201516113ca6060850182611409565b5060808201516113dd6080850182611409565b5060a08201516113f060a0850182611409565b5060c082015161140360c085018261124e565b50505050565b6114128161166d565b82525050565b6114218161166d565b82525050565b600061143282611321565b9150819050919050565b600060208201905061145160008301846111d2565b92915050565b600060a08201905061146c60008301886111d2565b6114796020830187611418565b6114866040830186611418565b611493606083018561123f565b6114a0608083018461126c565b9695505050505050565b600060208201905081810360008301526114c481846111e1565b905092915050565b600060208201905081810360008301526114e58161127b565b9050919050565b60006020820190508181036000830152611505816112bb565b9050919050565b600060208201905081810360008301526115258161133b565b9050919050565b60006020820190506115416000830184611418565b92915050565b600060e08201905061155c600083018a611418565b61156960208301896111d2565b6115766040830188611418565b6115836060830187611418565b6115906080830186611418565b61159d60a0830185611418565b6115aa60c083018461125d565b98975050505050505050565b6000819050602082019050919050565b600081519050919050565b6000602082019050919050565b600082825260208201905092915050565b600081905092915050565b600082825260208201905092915050565b60006116168261164d565b9050919050565b6000819050919050565b60008190506116358261169b565b919050565b6000819050611648826116a8565b919050565b600073ffffffffffffffffffffffffffffffffffffffff82169050919050565b6000819050919050565b600061168282611627565b9050919050565b60006116948261163a565b9050919050565b600581106116a557fe5b50565b600381106116b257fe5b50565b6116be8161161d565b81146116c957600080fd5b50565b6116d58161166d565b81146116e057600080fd5b5056fea365627a7a72315820297152a51fd6c26c80ac9efc81a2564612edb36fc1efe6f3f6facb782f010eb56c6578706572696d656e74616cf564736f6c63430005100040",
  "source": "pragma solidity >=0.4.22 <0.9.0;\r\npragma experimental ABIEncoderV2;\r\n\r\nimport \"./SafeMath.sol\";\r\n\r\ncontract Lending {\r\n    using SafeMath for uint256;\r\n    using SafeMath for uint256;\r\n\r\n    enum ProposalState {\r\n        ACCEPTED,\r\n        ACCEPTING,\r\n        WAITING\r\n    }\r\n    enum LoanState {\r\n        REPAID,\r\n        ACCEPTED,\r\n        WAITING,\r\n        PAID,\r\n        FAILED\r\n    }\r\n\r\n    // borrower\r\n\r\n    struct Proposal {\r\n        address borrower;\r\n        uint256 amount;\r\n        uint256 time;\r\n        bytes32 mortgage;\r\n        ProposalState state;\r\n    }\r\n\r\n    struct Loan {\r\n        uint256 loanId;\r\n        address lender;\r\n        uint256 loanAmount;\r\n        uint256 interestRate;\r\n        uint256 proposalId; // not sure?\r\n        uint256 time;\r\n        LoanState state;\r\n    }\r\n\r\n    Proposal[] public proposals;\r\n    Loan[] public potential_lenders;\r\n    Loan[] public loans;\r\n\r\n    mapping(uint256 => address) public proposalToBorrower;\r\n    mapping(uint256 => address) public loanToLender;\r\n\r\n    function createProposal(\r\n        uint256 _loanAmount,\r\n        uint256 _time,\r\n        bytes32 _mortgage\r\n    ) public {\r\n        //change loanAmount to amount?\r\n        proposals.push(\r\n            Proposal(\r\n                msg.sender,\r\n                _loanAmount,\r\n                _time,\r\n                _mortgage,\r\n                ProposalState.WAITING\r\n            )\r\n        );\r\n        uint256 _proposalId = proposals.length - 1;\r\n        proposalToBorrower[_proposalId] = msg.sender;\r\n    }\r\n\r\n    function acceptProposal(\r\n        uint256 _loanAmount,\r\n        uint256 _interestRate,\r\n        uint256 _proposalId\r\n    ) public {\r\n        uint256 _loanId = potential_lenders.length;\r\n        potential_lenders.push(\r\n            Loan(\r\n                _loanId,\r\n                msg.sender,\r\n                _loanAmount,\r\n                _interestRate,\r\n                _proposalId,\r\n                0,\r\n                LoanState.WAITING\r\n            )\r\n        );\r\n\r\n        loanToLender[_loanId] = msg.sender;\r\n\r\n        proposals[_proposalId].state = ProposalState.ACCEPTING;\r\n    }\r\n\r\n    function getAllPotentialLenders() public view returns (Loan[] memory) {\r\n        return potential_lenders;\r\n    }\r\n\r\n    function acceptLender(uint256 _loanId, uint256 _proposalId) public payable {\r\n        loans.push(\r\n            Loan(\r\n                _loanId,\r\n                loanToLender[_loanId],\r\n                potential_lenders[_loanId].loanAmount,\r\n                potential_lenders[_loanId].interestRate,\r\n                _proposalId,\r\n                block.timestamp,\r\n                LoanState.PAID\r\n            )\r\n        );\r\n\r\n        proposals[_proposalId].state = ProposalState.ACCEPTED;\r\n\r\n        (bool success, ) = msg.sender.call.value(\r\n            potential_lenders[_loanId].loanAmount\r\n        )(\"\");\r\n        require(success, \"Transfer failed.\");\r\n    }\r\n\r\n    function repayAmount(uint256 _loanId) public view returns (uint256) {\r\n        if (loans[_loanId].state == LoanState.ACCEPTED) {\r\n            uint256 startTime = loans[_loanId].time;\r\n            uint256 finalAmount = 0;\r\n            uint256 principalValue = loans[_loanId].loanAmount;\r\n            uint256 paymentTime = block.timestamp;\r\n            uint256 interestRate = loans[_loanId].interestRate;\r\n            uint256 loanTime = paymentTime - startTime;\r\n\r\n            uint256 interest = (\r\n                principalValue.mul(interestRate).mul(loanTime)\r\n            ) / (365 * 24 * 60 * 60 * 100);\r\n\r\n            finalAmount.add(interest);\r\n            finalAmount.add(principalValue);\r\n\r\n            return finalAmount;\r\n        }\r\n    }\r\n\r\n    function repayLoan(uint256 _loanId) public payable {\r\n        uint256 pendingAmount = repayAmount(_loanId);\r\n        uint256 paid = msg.value;\r\n\r\n        if (paid >= pendingAmount) {\r\n            uint256 remainingValue = paid - pendingAmount;\r\n\r\n            (bool success, ) = msg.sender.call.value(pendingAmount)(\"\");\r\n            require(success, \"Transfer failed.\");\r\n\r\n            (bool done, ) = loans[_loanId].lender.call.value(remainingValue)(\r\n                \"\"\r\n            );\r\n            require(done, \"Transfer failed.\");\r\n\r\n            loans[_loanId].state = LoanState.REPAID;\r\n        } else {\r\n            (bool success, ) = msg.sender.call.value(paid)(\"\");\r\n            require(success, \"Transfer failed.\");\r\n\r\n            loans[_loanId].state = LoanState.REPAID;\r\n        }\r\n    }\r\n}\r\n",
  "sourcePath": "D:\\Studies\\coding\\blockchain\\DeFi-P2P-Lender\\contracts\\Lending.sol",
  "compiler": {
    "name": "solc",
    "version": "0.5.16+commit.9c3226ce.Emscripten.clang"
  },
  "schemaVersion": "3.4.3",
  "updatedAt": "2021-11-11T00:07:17.820Z",
  "networkType": "ethereum",
  "devdoc": {
    "methods": {}
  },
  "userdoc": {
    "methods": {}
  }
}