{
  "contractName": "Lending",
  "abi": [
    {
      "constant": true,
      "inputs": [
        {
          "internalType": "uint256",
          "name": "",
          "type": "uint256"
        }
      ],
      "name": "loanToLender",
      "outputs": [
        {
          "internalType": "address",
          "name": "",
          "type": "address"
        }
      ],
      "payable": false,
      "stateMutability": "view",
      "type": "function"
    },
    {
      "constant": true,
      "inputs": [
        {
          "internalType": "uint256",
          "name": "",
          "type": "uint256"
        }
      ],
      "name": "loans",
      "outputs": [
        {
          "internalType": "uint256",
          "name": "loanId",
          "type": "uint256"
        },
        {
          "internalType": "address",
          "name": "lender",
          "type": "address"
        },
        {
          "internalType": "uint256",
          "name": "loanAmount",
          "type": "uint256"
        },
        {
          "internalType": "uint256",
          "name": "interestRate",
          "type": "uint256"
        },
        {
          "internalType": "uint256",
          "name": "proposalId",
          "type": "uint256"
        },
        {
          "internalType": "uint256",
          "name": "time",
          "type": "uint256"
        },
        {
          "internalType": "enum Lending.LoanState",
          "name": "state",
          "type": "uint8"
        }
      ],
      "payable": false,
      "stateMutability": "view",
      "type": "function"
    },
    {
      "constant": true,
      "inputs": [
        {
          "internalType": "uint256",
          "name": "",
          "type": "uint256"
        }
      ],
      "name": "potential_lenders",
      "outputs": [
        {
          "internalType": "uint256",
          "name": "loanId",
          "type": "uint256"
        },
        {
          "internalType": "address",
          "name": "lender",
          "type": "address"
        },
        {
          "internalType": "uint256",
          "name": "loanAmount",
          "type": "uint256"
        },
        {
          "internalType": "uint256",
          "name": "interestRate",
          "type": "uint256"
        },
        {
          "internalType": "uint256",
          "name": "proposalId",
          "type": "uint256"
        },
        {
          "internalType": "uint256",
          "name": "time",
          "type": "uint256"
        },
        {
          "internalType": "enum Lending.LoanState",
          "name": "state",
          "type": "uint8"
        }
      ],
      "payable": false,
      "stateMutability": "view",
      "type": "function"
    },
    {
      "constant": true,
      "inputs": [
        {
          "internalType": "uint256",
          "name": "",
          "type": "uint256"
        }
      ],
      "name": "proposalToBorrower",
      "outputs": [
        {
          "internalType": "address",
          "name": "",
          "type": "address"
        }
      ],
      "payable": false,
      "stateMutability": "view",
      "type": "function"
    },
    {
      "constant": true,
      "inputs": [
        {
          "internalType": "uint256",
          "name": "",
          "type": "uint256"
        }
      ],
      "name": "proposals",
      "outputs": [
        {
          "internalType": "address",
          "name": "borrower",
          "type": "address"
        },
        {
          "internalType": "uint256",
          "name": "amount",
          "type": "uint256"
        },
        {
          "internalType": "uint256",
          "name": "time",
          "type": "uint256"
        },
        {
          "internalType": "bytes32",
          "name": "mortgage",
          "type": "bytes32"
        },
        {
          "internalType": "enum Lending.ProposalState",
          "name": "state",
          "type": "uint8"
        }
      ],
      "payable": false,
      "stateMutability": "view",
      "type": "function"
    },
    {
      "constant": false,
      "inputs": [
        {
          "internalType": "uint256",
          "name": "_loanAmount",
          "type": "uint256"
        },
        {
          "internalType": "uint256",
          "name": "_time",
          "type": "uint256"
        },
        {
          "internalType": "bytes32",
          "name": "_mortgage",
          "type": "bytes32"
        }
      ],
      "name": "createProposal",
      "outputs": [],
      "payable": false,
      "stateMutability": "nonpayable",
      "type": "function"
    },
    {
      "constant": true,
      "inputs": [],
      "name": "getAllProposals",
      "outputs": [
        {
          "components": [
            {
              "internalType": "address",
              "name": "borrower",
              "type": "address"
            },
            {
              "internalType": "uint256",
              "name": "amount",
              "type": "uint256"
            },
            {
              "internalType": "uint256",
              "name": "time",
              "type": "uint256"
            },
            {
              "internalType": "bytes32",
              "name": "mortgage",
              "type": "bytes32"
            },
            {
              "internalType": "enum Lending.ProposalState",
              "name": "state",
              "type": "uint8"
            }
          ],
          "internalType": "struct Lending.Proposal[]",
          "name": "",
          "type": "tuple[]"
        }
      ],
      "payable": false,
      "stateMutability": "view",
      "type": "function"
    },
    {
      "constant": false,
      "inputs": [
        {
          "internalType": "uint256",
          "name": "_loanAmount",
          "type": "uint256"
        },
        {
          "internalType": "uint256",
          "name": "_interestRate",
          "type": "uint256"
        },
        {
          "internalType": "uint256",
          "name": "_proposalId",
          "type": "uint256"
        }
      ],
      "name": "acceptProposal",
      "outputs": [],
      "payable": false,
      "stateMutability": "nonpayable",
      "type": "function"
    },
    {
      "constant": true,
      "inputs": [],
      "name": "getAllPotentialLenders",
      "outputs": [
        {
          "components": [
            {
              "internalType": "uint256",
              "name": "loanId",
              "type": "uint256"
            },
            {
              "internalType": "address",
              "name": "lender",
              "type": "address"
            },
            {
              "internalType": "uint256",
              "name": "loanAmount",
              "type": "uint256"
            },
            {
              "internalType": "uint256",
              "name": "interestRate",
              "type": "uint256"
            },
            {
              "internalType": "uint256",
              "name": "proposalId",
              "type": "uint256"
            },
            {
              "internalType": "uint256",
              "name": "time",
              "type": "uint256"
            },
            {
              "internalType": "enum Lending.LoanState",
              "name": "state",
              "type": "uint8"
            }
          ],
          "internalType": "struct Lending.Loan[]",
          "name": "",
          "type": "tuple[]"
        }
      ],
      "payable": false,
      "stateMutability": "view",
      "type": "function"
    },
    {
      "constant": false,
      "inputs": [
        {
          "internalType": "uint256",
          "name": "_loanId",
          "type": "uint256"
        },
        {
          "internalType": "uint256",
          "name": "_proposalId",
          "type": "uint256"
        }
      ],
      "name": "acceptLender",
      "outputs": [],
      "payable": true,
      "stateMutability": "payable",
      "type": "function"
    },
    {
      "constant": false,
      "inputs": [],
      "name": "sendETHtoContract",
      "outputs": [],
      "payable": true,
      "stateMutability": "payable",
      "type": "function"
    },
    {
      "constant": false,
      "inputs": [
        {
          "internalType": "uint256",
          "name": "_loanId",
          "type": "uint256"
        }
      ],
      "name": "repayLoan",
      "outputs": [],
      "payable": true,
      "stateMutability": "payable",
      "type": "function"
    }
  ],
  "bytecode": "0x608060405234801561001057600080fd5b50611482806100206000396000f3fe6080604052600436106100a75760003560e01c80639dfe47cd116100645780639dfe47cd146101c9578063ab7b1c89146101f4578063b99c56c514610210578063bc254c001461024d578063cceb68f514610269578063e1ec3c6814610294576100a7565b80630133e1d8146100ac578063013cf08b146100d55780632e7107a214610116578063424959371461013f57806346df1347146101495780637028122d1461018c575b600080fd5b3480156100b857600080fd5b506100d360048036036100ce9190810190610e62565b6102d7565b005b3480156100e157600080fd5b506100fc60048036036100f79190810190610dae565b6104a1565b60405161010d9594939291906111b3565b60405180910390f35b34801561012257600080fd5b5061013d60048036036101389190810190610e13565b610511565b005b61014761067c565b005b34801561015557600080fd5b50610170600480360361016b9190810190610dae565b61067e565b604051610183979695949392919061126a565b60405180910390f35b34801561019857600080fd5b506101b360048036036101ae9190810190610dae565b6106fa565b6040516101c09190611198565b60405180910390f35b3480156101d557600080fd5b506101de61072d565b6040516101eb9190611206565b60405180910390f35b61020e60048036036102099190810190610dae565b610841565b005b34801561021c57600080fd5b5061023760048036036102329190810190610dae565b610931565b6040516102449190611198565b60405180910390f35b61026760048036036102629190810190610dd7565b610964565b005b34801561027557600080fd5b5061027e610c08565b60405161028b9190611228565b60405180910390f35b3480156102a057600080fd5b506102bb60048036036102b69190810190610dae565b610d08565b6040516102ce979695949392919061126a565b60405180910390f35b6000600180549050905060016040518060e001604052808381526020013373ffffffffffffffffffffffffffffffffffffffff168152602001868152602001858152602001848152602001600081526020016002600481111561033657fe5b815250908060018154018082558091505090600182039060005260206000209060070201600090919290919091506000820151816000015560208201518160010160006101000a81548173ffffffffffffffffffffffffffffffffffffffff021916908373ffffffffffffffffffffffffffffffffffffffff16021790555060408201518160020155606082015181600301556080820151816004015560a0820151816005015560c08201518160060160006101000a81548160ff0219169083600481111561040157fe5b0217905550505050336004600083815260200190815260200160002060006101000a81548173ffffffffffffffffffffffffffffffffffffffff021916908373ffffffffffffffffffffffffffffffffffffffff16021790555060016000838154811061046a57fe5b906000526020600020906005020160040160006101000a81548160ff0219169083600281111561049657fe5b021790555050505050565b600081815481106104ae57fe5b90600052602060002090600502016000915090508060000160009054906101000a900473ffffffffffffffffffffffffffffffffffffffff16908060010154908060020154908060030154908060040160009054906101000a900460ff16905085565b60006040518060a001604052803373ffffffffffffffffffffffffffffffffffffffff16815260200185815260200184815260200183815260200160028081111561055857fe5b8152509080600181540180825580915050906001820390600052602060002090600502016000909192909190915060008201518160000160006101000a81548173ffffffffffffffffffffffffffffffffffffffff021916908373ffffffffffffffffffffffffffffffffffffffff16021790555060208201518160010155604082015181600201556060820151816003015560808201518160040160006101000a81548160ff0219169083600281111561060f57fe5b021790555050505060006001600080549050039050336003600083815260200190815260200160002060006101000a81548173ffffffffffffffffffffffffffffffffffffffff021916908373ffffffffffffffffffffffffffffffffffffffff16021790555050505050565b565b6001818154811061068b57fe5b90600052602060002090600702016000915090508060000154908060010160009054906101000a900473ffffffffffffffffffffffffffffffffffffffff16908060020154908060030154908060040154908060050154908060060160009054906101000a900460ff16905087565b60046020528060005260406000206000915054906101000a900473ffffffffffffffffffffffffffffffffffffffff1681565b60606001805480602002602001604051908101604052809291908181526020016000905b8282101561083857838290600052602060002090600702016040518060e0016040529081600082015481526020016001820160009054906101000a900473ffffffffffffffffffffffffffffffffffffffff1673ffffffffffffffffffffffffffffffffffffffff1673ffffffffffffffffffffffffffffffffffffffff168152602001600282015481526020016003820154815260200160048201548152602001600582015481526020016006820160009054906101000a900460ff16600481111561081a57fe5b600481111561082557fe5b8152505081526020019060010190610751565b50505050905090565b60003373ffffffffffffffffffffffffffffffffffffffff163460405161086790611183565b60006040518083038185875af1925050503d80600081146108a4576040519150601f19603f3d011682016040523d82523d6000602084013e6108a9565b606091505b50509050806108ed576040517f08c379a00000000000000000000000000000000000000000000000000000000081526004016108e49061124a565b60405180910390fd5b6000600283815481106108fc57fe5b906000526020600020906007020160060160006101000a81548160ff0219169083600481111561092857fe5b02179055505050565b60036020528060005260406000206000915054906101000a900473ffffffffffffffffffffffffffffffffffffffff1681565b60026040518060e001604052808481526020016004600086815260200190815260200160002060009054906101000a900473ffffffffffffffffffffffffffffffffffffffff1673ffffffffffffffffffffffffffffffffffffffff168152602001600185815481106109d357fe5b9060005260206000209060070201600201548152602001600185815481106109f757fe5b906000526020600020906007020160030154815260200183815260200142815260200160036004811115610a2757fe5b815250908060018154018082558091505090600182039060005260206000209060070201600090919290919091506000820151816000015560208201518160010160006101000a81548173ffffffffffffffffffffffffffffffffffffffff021916908373ffffffffffffffffffffffffffffffffffffffff16021790555060408201518160020155606082015181600301556080820151816004015560a0820151816005015560c08201518160060160006101000a81548160ff02191690836004811115610af257fe5b02179055505050506000808281548110610b0857fe5b906000526020600020906005020160040160006101000a81548160ff02191690836002811115610b3457fe5b021790555060003373ffffffffffffffffffffffffffffffffffffffff1660018481548110610b5f57fe5b906000526020600020906007020160020154604051610b7d90611183565b60006040518083038185875af1925050503d8060008114610bba576040519150601f19603f3d011682016040523d82523d6000602084013e610bbf565b606091505b5050905080610c03576040517f08c379a0000000000000000000000000000000000000000000000000000000008152600401610bfa9061124a565b60405180910390fd5b505050565b60606000805480602002602001604051908101604052809291908181526020016000905b82821015610cff57838290600052602060002090600502016040518060a00160405290816000820160009054906101000a900473ffffffffffffffffffffffffffffffffffffffff1673ffffffffffffffffffffffffffffffffffffffff1673ffffffffffffffffffffffffffffffffffffffff1681526020016001820154815260200160028201548152602001600382015481526020016004820160009054906101000a900460ff166002811115610ce157fe5b6002811115610cec57fe5b8152505081526020019060010190610c2c565b50505050905090565b60028181548110610d1557fe5b90600052602060002090600702016000915090508060000154908060010160009054906101000a900473ffffffffffffffffffffffffffffffffffffffff16908060020154908060030154908060040154908060050154908060060160009054906101000a900460ff16905087565b600081359050610d9381611411565b92915050565b600081359050610da881611428565b92915050565b600060208284031215610dc057600080fd5b6000610dce84828501610d99565b91505092915050565b60008060408385031215610dea57600080fd5b6000610df885828601610d99565b9250506020610e0985828601610d99565b9150509250929050565b600080600060608486031215610e2857600080fd5b6000610e3686828701610d99565b9350506020610e4786828701610d99565b9250506040610e5886828701610d84565b9150509250925092565b600080600060608486031215610e7757600080fd5b6000610e8586828701610d99565b9350506020610e9686828701610d99565b9250506040610ea786828701610d99565b9150509250925092565b6000610ebd838361106f565b60e08301905092915050565b6000610ed583836110fd565b60a08301905092915050565b610eea81611367565b82525050565b610ef981611367565b82525050565b6000610f0a826112f9565b610f148185611329565b9350610f1f836112d9565b8060005b83811015610f50578151610f378882610eb1565b9750610f428361130f565b925050600181019050610f23565b5085935050505092915050565b6000610f6882611304565b610f72818561133a565b9350610f7d836112e9565b8060005b83811015610fae578151610f958882610ec9565b9750610fa08361131c565b925050600181019050610f81565b5085935050505092915050565b610fc481611379565b82525050565b610fd381611379565b82525050565b610fe2816113d3565b82525050565b610ff1816113d3565b82525050565b611000816113e5565b82525050565b61100f816113e5565b82525050565b600061102260008361134b565b9150600082019050919050565b600061103c601083611356565b91507f5472616e73666572206661696c65642e000000000000000000000000000000006000830152602082019050919050565b60e0820160008201516110856000850182611165565b5060208201516110986020850182610ee1565b5060408201516110ab6040850182611165565b5060608201516110be6060850182611165565b5060808201516110d16080850182611165565b5060a08201516110e460a0850182611165565b5060c08201516110f760c0850182610fd9565b50505050565b60a0820160008201516111136000850182610ee1565b5060208201516111266020850182611165565b5060408201516111396040850182611165565b50606082015161114c6060850182610fbb565b50608082015161115f6080850182610ff7565b50505050565b61116e816113c9565b82525050565b61117d816113c9565b82525050565b600061118e82611015565b9150819050919050565b60006020820190506111ad6000830184610ef0565b92915050565b600060a0820190506111c86000830188610ef0565b6111d56020830187611174565b6111e26040830186611174565b6111ef6060830185610fca565b6111fc6080830184611006565b9695505050505050565b600060208201905081810360008301526112208184610eff565b905092915050565b600060208201905081810360008301526112428184610f5d565b905092915050565b600060208201905081810360008301526112638161102f565b9050919050565b600060e08201905061127f600083018a611174565b61128c6020830189610ef0565b6112996040830188611174565b6112a66060830187611174565b6112b36080830186611174565b6112c060a0830185611174565b6112cd60c0830184610fe8565b98975050505050505050565b6000819050602082019050919050565b6000819050602082019050919050565b600081519050919050565b600081519050919050565b6000602082019050919050565b6000602082019050919050565b600082825260208201905092915050565b600082825260208201905092915050565b600081905092915050565b600082825260208201905092915050565b6000611372826113a9565b9050919050565b6000819050919050565b6000819050611391826113f7565b919050565b60008190506113a482611404565b919050565b600073ffffffffffffffffffffffffffffffffffffffff82169050919050565b6000819050919050565b60006113de82611383565b9050919050565b60006113f082611396565b9050919050565b6005811061140157fe5b50565b6003811061140e57fe5b50565b61141a81611379565b811461142557600080fd5b50565b611431816113c9565b811461143c57600080fd5b5056fea365627a7a7231582067e8e62dd164e42d971b966963f9dd17e820b00e04bc18631206a9ce6629c1146c6578706572696d656e74616cf564736f6c63430005100040",
  "source": "pragma solidity >=0.4.22 <0.9.0;\r\npragma experimental ABIEncoderV2;\r\n\r\nimport \"./SafeMath.sol\";\r\n\r\ncontract Lending {\r\n    using SafeMath for uint256;\r\n    using SafeMath for uint256;\r\n\r\n    enum ProposalState {\r\n        ACCEPTED,\r\n        ACCEPTING,\r\n        WAITING\r\n    }\r\n    enum LoanState {\r\n        REPAID,\r\n        ACCEPTED,\r\n        WAITING,\r\n        PAID,\r\n        FAILED\r\n    }\r\n\r\n    // borrower\r\n\r\n    struct Proposal {\r\n        address borrower;\r\n        uint256 amount;\r\n        uint256 time;\r\n        bytes32 mortgage;\r\n        ProposalState state;\r\n    }\r\n\r\n    struct Loan {\r\n        uint256 loanId;\r\n        address lender;\r\n        uint256 loanAmount;\r\n        uint256 interestRate;\r\n        uint256 proposalId; // not sure?\r\n        uint256 time;\r\n        LoanState state;\r\n    }\r\n\r\n    Proposal[] public proposals;\r\n    Loan[] public potential_lenders;\r\n    Loan[] public loans;\r\n\r\n    mapping(uint256 => address) public proposalToBorrower;\r\n    mapping(uint256 => address) public loanToLender;\r\n\r\n    function createProposal(\r\n        uint256 _loanAmount,\r\n        uint256 _time,\r\n        bytes32 _mortgage\r\n    ) public {\r\n        //change loanAmount to amount?\r\n        proposals.push(\r\n            Proposal(\r\n                msg.sender,\r\n                _loanAmount,\r\n                _time,\r\n                _mortgage,\r\n                ProposalState.WAITING\r\n            )\r\n        );\r\n        uint256 _proposalId = proposals.length - 1;\r\n        proposalToBorrower[_proposalId] = msg.sender;\r\n    }\r\n\r\n    function getAllProposals() public view returns (Proposal[] memory) {\r\n        return proposals;\r\n    }\r\n\r\n    function acceptProposal(\r\n        uint256 _loanAmount,\r\n        uint256 _interestRate,\r\n        uint256 _proposalId\r\n    ) public {\r\n        uint256 _loanId = potential_lenders.length;\r\n        potential_lenders.push(\r\n            Loan(\r\n                _loanId,\r\n                msg.sender,\r\n                _loanAmount,\r\n                _interestRate,\r\n                _proposalId,\r\n                0,\r\n                LoanState.WAITING\r\n            )\r\n        );\r\n\r\n        loanToLender[_loanId] = msg.sender;\r\n\r\n        proposals[_proposalId].state = ProposalState.ACCEPTING;\r\n    }\r\n\r\n    function getAllPotentialLenders() public view returns (Loan[] memory) {\r\n        return potential_lenders;\r\n    }\r\n\r\n    function acceptLender(uint256 _loanId, uint256 _proposalId) public payable {\r\n        loans.push(\r\n            Loan(\r\n                _loanId,\r\n                loanToLender[_loanId],\r\n                potential_lenders[_loanId].loanAmount,\r\n                potential_lenders[_loanId].interestRate,\r\n                _proposalId,\r\n                block.timestamp,\r\n                LoanState.PAID\r\n            )\r\n        );\r\n\r\n        proposals[_proposalId].state = ProposalState.ACCEPTED;\r\n\r\n        (bool success, ) = msg.sender.call.value(\r\n            potential_lenders[_loanId].loanAmount\r\n        )(\"\");\r\n        require(success, \"Transfer failed.\");\r\n    }\r\n\r\n    function sendETHtoContract() public payable {\r\n        //msg.value is the amount of wei that the msg.sender sent with this transaction.\r\n        //If the transaction doesn't fail, then the contract now has this ETH.\r\n    }\r\n\r\n    // function repayAmount(uint256 _loanId) public view returns (uint256) {\r\n    //     if (loans[_loanId].state == LoanState.ACCEPTED) {\r\n    //         uint256 startTime = loans[_loanId].time;\r\n    //         uint256 finalAmount = 0;\r\n    //         uint256 principalValue = loans[_loanId].loanAmount;\r\n    //         uint256 paymentTime = block.timestamp;\r\n    //         uint256 interestRate = loans[_loanId].interestRate;\r\n    //         uint256 loanTime = paymentTime - startTime;\r\n\r\n    //         uint256 interest = (\r\n    //             principalValue.mul(interestRate).mul(loanTime)\r\n    //         ) / (365 * 24 * 60 * 60 * 100);\r\n\r\n    //         finalAmount.add(interest);\r\n    //         finalAmount.add(principalValue);\r\n\r\n    //         return finalAmount;\r\n    //     }\r\n    // }\r\n\r\n    function repayLoan(uint256 _loanId) public payable {\r\n        (bool success, ) = msg.sender.call.value(msg.value)(\"\");\r\n        require(success, \"Transfer failed.\");\r\n\r\n        loans[_loanId].state = LoanState.REPAID;\r\n    }\r\n}\r\n",
  "sourcePath": "D:\\Studies\\coding\\blockchain\\DeFi-P2P-Lender\\contracts\\Lending.sol",
  "compiler": {
    "name": "solc",
    "version": "0.5.16+commit.9c3226ce.Emscripten.clang"
  },
  "schemaVersion": "3.4.3",
  "updatedAt": "2021-11-12T12:37:15.872Z",
  "networkType": "ethereum",
  "devdoc": {
    "methods": {}
  },
  "userdoc": {
    "methods": {}
  }
}