{
  "contractName": "Mortgage",
  "abi": [
    {
      "inputs": [],
      "payable": false,
      "stateMutability": "nonpayable",
      "type": "constructor"
    },
    {
      "constant": true,
      "inputs": [],
      "name": "borrower",
      "outputs": [
        {
          "internalType": "address",
          "name": "",
          "type": "address"
        }
      ],
      "payable": false,
      "stateMutability": "view",
      "type": "function"
    },
    {
      "constant": true,
      "inputs": [
        {
          "internalType": "address",
          "name": "",
          "type": "address"
        }
      ],
      "name": "borrowerToMortgage",
      "outputs": [
        {
          "internalType": "string",
          "name": "",
          "type": "string"
        }
      ],
      "payable": false,
      "stateMutability": "view",
      "type": "function"
    },
    {
      "constant": true,
      "inputs": [
        {
          "internalType": "string",
          "name": "",
          "type": "string"
        }
      ],
      "name": "mortgageToBorrower",
      "outputs": [
        {
          "internalType": "address",
          "name": "",
          "type": "address"
        }
      ],
      "payable": false,
      "stateMutability": "view",
      "type": "function"
    },
    {
      "constant": false,
      "inputs": [
        {
          "internalType": "string",
          "name": "document",
          "type": "string"
        }
      ],
      "name": "addMortgage",
      "outputs": [],
      "payable": false,
      "stateMutability": "nonpayable",
      "type": "function"
    }
  ],
  "bytecode": "0x608060405234801561001057600080fd5b50336000806101000a81548173ffffffffffffffffffffffffffffffffffffffff021916908373ffffffffffffffffffffffffffffffffffffffff160217905550610605806100606000396000f3fe608060405234801561001057600080fd5b506004361061004c5760003560e01c80631d99f098146100515780637df1f1b91461010c578063cdfec14a14610156578063e74d396414610251575b600080fd5b61010a6004803603602081101561006757600080fd5b810190808035906020019064010000000081111561008457600080fd5b82018360208201111561009657600080fd5b803590602001918460018302840111640100000000831117156100b857600080fd5b91908080601f016020809104026020016040519081016040528093929190818152602001838380828437600081840152601f19601f82011690508083019250505050505050919291929050505061030e565b005b61011461040d565b604051808273ffffffffffffffffffffffffffffffffffffffff1673ffffffffffffffffffffffffffffffffffffffff16815260200191505060405180910390f35b61020f6004803603602081101561016c57600080fd5b810190808035906020019064010000000081111561018957600080fd5b82018360208201111561019b57600080fd5b803590602001918460018302840111640100000000831117156101bd57600080fd5b91908080601f016020809104026020016040519081016040528093929190818152602001838380828437600081840152601f19601f820116905080830192505050505050509192919290505050610432565b604051808273ffffffffffffffffffffffffffffffffffffffff1673ffffffffffffffffffffffffffffffffffffffff16815260200191505060405180910390f35b6102936004803603602081101561026757600080fd5b81019080803573ffffffffffffffffffffffffffffffffffffffff16906020019092919050505061047b565b6040518080602001828103825283818151815260200191508051906020019080838360005b838110156102d35780820151818401526020810190506102b8565b50505050905090810190601f1680156103005780820380516001836020036101000a031916815260200191505b509250505060405180910390f35b336001826040518082805190602001908083835b602083106103455780518252602082019150602081019050602083039250610322565b6001836020036101000a038019825116818451168082178552505050505050905001915050908152602001604051809103902060006101000a81548173ffffffffffffffffffffffffffffffffffffffff021916908373ffffffffffffffffffffffffffffffffffffffff16021790555080600260003373ffffffffffffffffffffffffffffffffffffffff1673ffffffffffffffffffffffffffffffffffffffff168152602001908152602001600020908051906020019061040992919061052b565b5050565b6000809054906101000a900473ffffffffffffffffffffffffffffffffffffffff1681565b6001818051602081018201805184825260208301602085012081835280955050505050506000915054906101000a900473ffffffffffffffffffffffffffffffffffffffff1681565b60026020528060005260406000206000915090508054600181600116156101000203166002900480601f0160208091040260200160405190810160405280929190818152602001828054600181600116156101000203166002900480156105235780601f106104f857610100808354040283529160200191610523565b820191906000526020600020905b81548152906001019060200180831161050657829003601f168201915b505050505081565b828054600181600116156101000203166002900490600052602060002090601f016020900481019282601f1061056c57805160ff191683800117855561059a565b8280016001018555821561059a579182015b8281111561059957825182559160200191906001019061057e565b5b5090506105a791906105ab565b5090565b6105cd91905b808211156105c95760008160009055506001016105b1565b5090565b9056fea265627a7a72315820dee42f238bd269fbcaa79920f93f9567e1085f5f235cc3cbb66fa0f3e90a65c164736f6c63430005100032",
  "source": "// SPDX-License-Identifier: MIT\r\npragma solidity >=0.4.22 <0.9.0;\r\n\r\ncontract Mortgage {\r\n  address public borrower;\r\n\r\n  mapping (string=>address) public mortgageToBorrower;\r\n  mapping (address=>string) public borrowerToMortgage;\r\n\r\n  constructor() public {\r\n      borrower = msg.sender;\r\n  }\r\n  \r\n  function addMortgage(string memory document) public {\r\n    mortgageToBorrower[document] = msg.sender;\r\n    borrowerToMortgage[msg.sender] = document;\r\n  }\r\n}",
  "sourcePath": "C:\\Users\\LENOVO\\Desktop\\DeFi-P2P-Lender\\contracts\\Mortgage.sol",
  "compiler": {
    "name": "solc",
    "version": "0.5.16+commit.9c3226ce.Emscripten.clang"
  },
  "schemaVersion": "3.4.3",
  "updatedAt": "2021-11-12T16:11:58.720Z",
  "devdoc": {
    "methods": {}
  },
  "userdoc": {
    "methods": {}
  }
}