{
  "contractName": "Mortgage",
  "abi": [
    {
      "inputs": [],
      "payable": false,
      "stateMutability": "nonpayable",
      "type": "constructor"
    },
    {
      "constant": true,
      "inputs": [],
      "name": "borrower",
      "outputs": [
        {
          "internalType": "address",
          "name": "",
          "type": "address"
        }
      ],
      "payable": false,
      "stateMutability": "view",
      "type": "function"
    },
    {
      "constant": true,
      "inputs": [
        {
          "internalType": "address",
          "name": "",
          "type": "address"
        },
        {
          "internalType": "uint256",
          "name": "",
          "type": "uint256"
        }
      ],
      "name": "borrowerToMortgage",
      "outputs": [
        {
          "internalType": "bytes32",
          "name": "",
          "type": "bytes32"
        }
      ],
      "payable": false,
      "stateMutability": "view",
      "type": "function"
    },
    {
      "constant": true,
      "inputs": [
        {
          "internalType": "bytes32",
          "name": "",
          "type": "bytes32"
        }
      ],
      "name": "mortgageToBorrower",
      "outputs": [
        {
          "internalType": "address",
          "name": "",
          "type": "address"
        }
      ],
      "payable": false,
      "stateMutability": "view",
      "type": "function"
    },
    {
      "constant": false,
      "inputs": [
        {
          "internalType": "bytes32",
          "name": "document",
          "type": "bytes32"
        }
      ],
      "name": "addMortgage",
      "outputs": [],
      "payable": false,
      "stateMutability": "nonpayable",
      "type": "function"
    },
    {
      "constant": true,
      "inputs": [
        {
          "internalType": "address",
          "name": "person",
          "type": "address"
        }
      ],
      "name": "getCountMortgage",
      "outputs": [
        {
          "internalType": "uint256",
          "name": "",
          "type": "uint256"
        }
      ],
      "payable": false,
      "stateMutability": "view",
      "type": "function"
    }
  ],
  "bytecode": "0x608060405234801561001057600080fd5b50336000806101000a81548173ffffffffffffffffffffffffffffffffffffffff021916908373ffffffffffffffffffffffffffffffffffffffff160217905550610489806100606000396000f3fe608060405234801561001057600080fd5b50600436106100575760003560e01c8063116295d61461005c5780632abe1529146100b45780635b52e6af146101165780637df1f1b914610184578063b7b4ff03146101ce575b600080fd5b61009e6004803603602081101561007257600080fd5b81019080803573ffffffffffffffffffffffffffffffffffffffff1690602001909291905050506101fc565b6040518082815260200191505060405180910390f35b610100600480360360408110156100ca57600080fd5b81019080803573ffffffffffffffffffffffffffffffffffffffff16906020019092919080359060200190929190505050610248565b6040518082815260200191505060405180910390f35b6101426004803603602081101561012c57600080fd5b8101908080359060200190929190505050610276565b604051808273ffffffffffffffffffffffffffffffffffffffff1673ffffffffffffffffffffffffffffffffffffffff16815260200191505060405180910390f35b61018c6102a9565b604051808273ffffffffffffffffffffffffffffffffffffffff1673ffffffffffffffffffffffffffffffffffffffff16815260200191505060405180910390f35b6101fa600480360360208110156101e457600080fd5b81019080803590602001909291905050506102ce565b005b6000600260008373ffffffffffffffffffffffffffffffffffffffff1673ffffffffffffffffffffffffffffffffffffffff168152602001908152602001600020805490509050919050565b6002602052816000526040600020818154811061026157fe5b90600052602060002001600091509150505481565b60016020528060005260406000206000915054906101000a900473ffffffffffffffffffffffffffffffffffffffff1681565b6000809054906101000a900473ffffffffffffffffffffffffffffffffffffffff1681565b336001600083815260200190815260200160002060006101000a81548173ffffffffffffffffffffffffffffffffffffffff021916908373ffffffffffffffffffffffffffffffffffffffff1602179055506000600260003373ffffffffffffffffffffffffffffffffffffffff1673ffffffffffffffffffffffffffffffffffffffff16815260200190815260200160002080549050905060008090505b818110156103e55782600260003373ffffffffffffffffffffffffffffffffffffffff1673ffffffffffffffffffffffffffffffffffffffff16815260200190815260200160002082815481106103c057fe5b906000526020600020015414156103d8575050610451565b808060010191505061036d565b600260003373ffffffffffffffffffffffffffffffffffffffff1673ffffffffffffffffffffffffffffffffffffffff16815260200190815260200160002083908060018154018082558091505090600182039060005260206000200160009091929091909150555050505b5056fea265627a7a7231582043c400dc61a3179a1fb5b2cde3c9a902f0d204b387e35b832cfd930862f8492464736f6c63430005100032",
  "source": "// SPDX-License-Identifier: MIT\npragma solidity >=0.4.22 <0.9.0;\n\ncontract Mortgage {\n  address public borrower;\n\n  mapping (bytes32=>address) public mortgageToBorrower;\n  mapping (address=>bytes32[]) public borrowerToMortgage;\n\n  constructor() public {\n      borrower = msg.sender;\n  }\n  \n  function addMortgage(bytes32 document) public {\n\n    mortgageToBorrower[document] = msg.sender;\n\n    uint count = borrowerToMortgage[msg.sender].length;\n\n    uint i;\n    for(i=0;i<count; i++)\n    {\n      if(borrowerToMortgage[msg.sender][i] == document)\n        return;\n    }\n    borrowerToMortgage[msg.sender].push(document);\n  }\n\n  function getCountMortgage(address person) public view returns(uint) {\n    return borrowerToMortgage[person].length;\n  }\n}\n",
  "sourcePath": "/home/mounica/Desktop/Mounica/Blockchain/DeFi-P2P-Lender/contracts/Mortgage.sol",
  "compiler": {
    "name": "solc",
    "version": "0.5.16+commit.9c3226ce.Emscripten.clang"
  },
  "schemaVersion": "3.4.3",
  "updatedAt": "2021-11-11T18:58:45.156Z",
  "devdoc": {
    "methods": {}
  },
  "userdoc": {
    "methods": {}
  }
}